:020000040800F2
:1000000000000220251F00081D1A0008251A0008FC
:100010002D1A0008351A00083D1A000800000000DB
:10002000000000000000000000000000451A000869
:10003000531A000800000000611A00086F1A000837
:10004000751F0008751F0008751F0008751F000840
:10005000751F0008751F0008751F0008751F000830
:10006000751F0008751F0008751F0008751F000820
:10007000751F0008751F0008751F0008751F000810
:10008000751F0008751F0008751F0008751F000800
:100090007D1A0008751F0008751F0008751F0008ED
:1000A000751F0008751F0008751F0008911A0008C9
:1000B000751F0008A51A0008751F0008751F0008A5
:1000C000751F0008751F0008751F0008751F0008C0
:1000D000751F0008751F0008B91A0008751F000871
:1000E000751F0008751F0008751F0008751F0008A0
:1000F000751F0008751F0008751F0008751F000890
:10010000751F0008751F0008751F0008751F00087F
:10011000751F0008751F0008751F0008751F00086F
:10012000751F0008751F0008751F0008751F00085F
:10013000751F00080000000000000000751F000887
:10014000751F0008751F0008751F0008751F00083F
:10015000751F0008751F0008751F0008751F00082F
:10016000751F0008751F0008751F0008751F00081F
:10017000751F0008751F0008751F000800000000AB
:1001800000000000751F00080000000000000000D3
:10019000751F00080000000000000000751F000827
:1001A000000000000000000000000000751F0008B3
:1001B000751F0008751F0008751F0008751F0008CF
:0401C000751F00089F
:1001D00010B5054C237833B9044B13B10448AFF381
:1001E00000800123237010BD70000020000000007B
:1001F0004073000808B5034B1BB103490348AFF334
:10020000008008BD0000000074000020407300085A
:1002100001F0FF01102A2BDB10F0070F08D010F8B7
:10022000013B013A8B422DD010F0070F42B3F6D1BB
:10023000F0B441EA012141EA014122F007047FF0D4
:1002400000070023F0E80256083C85EA010586EA2B
:10025000010685FA47F5A3FA87F586FA47F6A5FA67
:1002600087F68EB9EED1F0BC01F0FF0102F0070273
:1002700032B110F8013B013A83EA010313B1F8D11E
:100280000020704701387047002D06BF35460338FF
:10029000073815F0010F07D1013015F4807F02BF38
:1002A000013015F4C03F0130F0BC0138704700BF89
:1002B00081F0004102E000BF83F0004330B54FEA17
:1002C00041044FEA430594EA050F08BF90EA020F84
:1002D0001FBF54EA000C55EA020C7FEA645C7FEA17
:1002E000655C00F0E2804FEA5454D4EB5555B8BF3A
:1002F0006D420CDD2C4480EA020281EA030382EAAB
:10030000000083EA010180EA020281EA0303362D3C
:1003100088BF30BD11F0004F4FEA01314FF4801C0F
:100320004CEA113102D0404261EB410113F0004F21
:100330004FEA03334CEA133302D0524263EB4303D8
:1003400094EA050F00F0A780A4F10104D5F1200E76
:100350000DDB02FA0EFC22FA05F2801841F10001D1
:1003600003FA0EF2801843FA05F359410EE0A5F1A5
:1003700020050EF1200E012A03FA0EFC28BF4CF0D6
:10038000020C43FA05F3C01851EBE37101F000458C
:1003900007D54FF0000EDCF1000C7EEB00006EEB99
:1003A0000101B1F5801F1BD3B1F5001F0CD3490823
:1003B0005FEA30004FEA3C0C04F101044FEA44527A
:1003C00012F5800F80F09A80BCF1004F08BF5FEA01
:1003D000500C50F1000041EB045141EA050130BDE1
:1003E0005FEA4C0C404141EB0101013C28BFB1F5F3
:1003F000801FE9D291F0000F04BF01460020B1FA3E
:1004000081F308BF2033A3F10B03B3F120020CDA10
:100410000C3208DD02F1140CC2F10C0201FA0CF0EE
:1004200021FA02F10CE002F11402D8BFC2F1200C53
:1004300001FA02F120FA0CFCDCBF41EA0C01904009
:10044000E41AA2BF01EB0451294330BD6FEA040452
:100450001F3C1CDA0C340EDC04F11404C4F120023D
:1004600020FA04F001FA02F340EA030021FA04F34F
:1004700045EA030130BDC4F10C04C4F1200220FAA6
:1004800002F001FA04F340EA0300294630BD21FAE4
:1004900004F0294630BD94F0000F83F4801306BFAA
:1004A00081F480110134013D4EE77FEA645C18BF9E
:1004B0007FEA655C29D094EA050F08BF90EA020F35
:1004C00005D054EA000C04BF1946104630BD91EA2D
:1004D000030F1EBF0021002030BD5FEA545C05D130
:1004E0004000494128BF41F0004130BD14F580046F
:1004F0003CBF01F5801130BD01F0004545F0FE41E3
:1005000041F470014FF0000030BD7FEA645C1ABF17
:10051000194610467FEA655C1CBF0B46024650EA4E
:10052000013406BF52EA033591EA030F41F400217A
:1005300030BD00BF90F0000F04BF0021704730B500
:100540004FF4806404F132044FF000054FF00001D5
:1005500050E700BF90F0000F04BF0021704730B596
:100560004FF4806404F1320410F0004548BF40426B
:100570004FF000013EE700BF42004FEAE2014FEAC0
:1005800031014FEA02701FBF12F07F4393F07F4F9B
:1005900081F06051704732F07F4208BF704793F09E
:1005A0007F4F04BF41F40021704730B54FF46074B1
:1005B00001F0004521F000411CE700BF50EA0102B4
:1005C00008BF704730B54FF000050AE050EA01025D
:1005D00008BF704730B511F0004502D5404261EBCD
:1005E00041014FF4806404F132045FEA915C3FF40E
:1005F000D8AE4FF003025FEADC0C18BF03325FEAAB
:10060000DC0C18BF033202EBDC02C2F1200300FA5B
:1006100003FC20FA02F001FA03FE40EA0E0021FA80
:1006200002F11444BDE600BF70B54FF0FF0C4CF46E
:10063000E06C1CEA11541DBF1CEA135594EA0C0F20
:1006400095EA0C0F00F0DEF82C4481EA030621EA5B
:100650004C5123EA4C5350EA013518BF52EA033596
:1006600041F4801143F4801338D0A0FB02CE4FF048
:100670000005E1FB02E506F00042E0FB03E54FF078
:100680000006E1FB03569CF0000F18BF4EF0010E70
:10069000A4F1FF04B6F5007F64F5407404D25FEA6C
:1006A0004E0E6D4146EB060642EAC62141EA55511F
:1006B0004FEAC52040EA5E504FEACE2EB4F1FD0C61
:1006C00088BFBCF5E06F1ED8BEF1004F08BF5FEADF
:1006D000500E50F1000041EB045170BD06F0004691
:1006E00046EA010140EA020081EA0301B4EB5C043E
:1006F000C2BFD4EB0C0541EA045170BD41F4801136
:100700004FF0000E013C00F3AB8014F1360FDEBF5A
:10071000002001F0004170BDC4F10004203C35DA36
:100720000C341BDC04F11404C4F1200500FA05F3B9
:1007300020FA04F001FA05F240EA020001F000425A
:1007400021F0004110EBD37021FA04F642EB0601D0
:100750005EEA430E08BF20EAD37070BDC4F10C04FA
:10076000C4F1200500FA04F320FA05F001FA04F2BE
:1007700040EA020001F0004110EBD37041F10001AA
:100780005EEA430E08BF20EAD37070BDC4F12005B5
:1007900000FA05F24EEA020E20FA04F301FA05F21D
:1007A00043EA020321FA04F001F0004121FA04F2C5
:1007B00020EA020000EBD3705EEA430E08BF20EA95
:1007C000D37070BD94F0000F0FD101F000464000CF
:1007D00041EB010111F4801F08BF013CF7D041EA51
:1007E000060195F0000F18BF704703F00046520055
:1007F00043EB030313F4801F08BF013DF7D043EA26
:100800000603704794EA0C0F0CEA135518BF95EADB
:100810000C0F0CD050EA410618BF52EA4306D1D162
:1008200081EA030101F000414FF0000070BD50EA81
:10083000410606BF1046194652EA430619D094EA0B
:100840000C0F02D150EA013613D195EA0C0F05D1F5
:1008500052EA03361CBF104619460AD181EA030149
:1008600001F0004141F0FE4141F470014FF0000001
:1008700070BD41F0FE4141F4780170BD70B54FF09C
:10088000FF0C4CF4E06C1CEA11541DBF1CEA13551C
:1008900094EA0C0F95EA0C0F00F0A7F8A4EB0504FE
:1008A00081EA030E52EA03354FEA013100F08880F5
:1008B0004FEA03334FF0805545EA131343EA1263BE
:1008C0004FEA022245EA111545EA10654FEA002673
:1008D0000EF000419D4208BF964244F1FD0404F52C
:1008E000407402D25B084FEA3202B61A65EB030588
:1008F0005B084FEA32024FF480104FF4002CB6EB45
:10090000020E75EB030E22BFB61A754640EA0C00C4
:100910005B084FEA3202B6EB020E75EB030E22BF04
:10092000B61A754640EA5C005B084FEA3202B6EB45
:10093000020E75EB030E22BFB61A754640EA9C0004
:100940005B084FEA3202B6EB020E75EB030E22BFD4
:10095000B61A754640EADC0055EA060E18D04FEA92
:10096000051545EA16754FEA06164FEAC30343EA32
:1009700052734FEAC2025FEA1C1CC0D111F4801FFF
:100980000BD141EA00014FF000004FF0004CB6E7F8
:1009900011F4801F04BF01430020B4F1FD0C88BF97
:1009A000BCF5E06F3FF6AFAEB5EB030C04BFB6EBA2
:1009B000020C5FEA500C50F1000041EB045170BD95
:1009C0000EF0004E4EEA113114EB5C04C2BFD4EBC2
:1009D0000C0541EA045170BD41F480114FF0000E46
:1009E000013C90E645EA060E8DE60CEA135594EAC2
:1009F0000C0F08BF95EA0C0F3FF43BAF94EA0C0FC5
:100A00000AD150EA01347FF434AF95EA0C0F7FF439
:100A100025AF104619462CE795EA0C0F06D152EA8D
:100A200003353FF4FDAE1046194622E750EA410671
:100A300018BF52EA43067FF4C5AE50EA41047FF482
:100A40000DAF52EA43057FF4EBAE12E74A0011D234
:100A500012F5001211D20DD56FF47873B3EB625218
:100A60000ED44FEAC12343F0004343EA505323FA24
:100A700002F070474FF00000704750EA013002D199
:100A80004FF0FF3070474FF00000704753B94AB93C
:100A9000002908BF00281CBF4FF0FF314FF0FF3086
:100AA00000F06AB9ADF1080C6DE904CE00F006F86B
:100AB000DDF804E0DDE9022304B070472DE9F047DA
:100AC000089D0C46002B4ED194468C458646B2FAC2
:100AD00082F262D94AB1C2F12003914020FA03F3B5
:100AE0000CFA02FC194300FA02FE4FEA1C471FFAF7
:100AF0008CF6B1FBF7F44FEA1E4307FB141143EAEF
:100B0000014304FB06F199420AD91CEB030304F1EB
:100B1000FF3080F01281994240F20F81023C634421
:100B2000591A1FFA8EF3B1FBF7F007FB101143EAD5
:100B3000014300FB06F69E420AD91CEB030300F1B9
:100B4000FF3180F0FC809E4240F2F980634402381D
:100B50009B1B40EA044000211DB1D3400022C5E99F
:100B60000032BDE8F0878B4205D90DB1C5E900011F
:100B700000210846F5E7B3FA83F1002946D1A342E4
:100B800002D39042C0F0F080861A64EB0303012088
:100B9000002DE6D0C5E90063E3E7002A40F090802D
:100BA000A1EB0C044FEA1C481FFA8CF70121B4FB9F
:100BB000F8F64FEA1E4308FB164443EA044307FBDA
:100BC00006F0984208D91CEB030306F1FF3402D269
:100BD000984200F2CD8026461C1A1FFA8EF3B4FB11
:100BE000F8F008FB104443EA044300FB07F79F4278
:100BF00008D91CEB030300F1FF3402D29F4200F23C
:100C0000B0802046DB1B40EA0640A5E7C1F1200684
:100C10008B4022FA06F71F4320FA06FC04FA01F380
:100C200043EA0C03F44000FA01F8380C4FEA134988
:100C3000B4FBF0FE1FFA87FC00FB1E4449EA0444A3
:100C40000EFB0CF9A14502FA01F20AD93C190EF18A
:100C5000FF3A80F08480A14540F28180AEF1020E1F
:100C60003C44A4EB09041FFA83F9B4FBF0F300FB46
:100C7000134449EA044403FB0CFCA44507D93C197E
:100C800003F1FF3067D2A44565D9023B3C4443EAF7
:100C90000E40A0FB0293A4EB0C049C42CE469C4663
:100CA00051D34ED055B1B8EB0E0364EB0C0404FAEB
:100CB00006F6CB401E43CC40C5E90064002150E756
:100CC000C2F1200320FA03F10CFA02FC24FA03F328
:100CD00094400C434FEA1C4800FA02FE1FFA8CF7BE
:100CE000B3FBF8F008FB1031230C43EA014300FB8F
:100CF00007F1994208D91CEB030300F1FF362CD20F
:100D000099422AD9023863445B1AA4B2B3FBF8F1C2
:100D100008FB113344EA034401FB07F3A34208D95B
:100D20001CEB040401F1FF3613D2A34211D902399E
:100D30006444E41A41EA004139E70446F0E6084613
:100D400006E7C845AED2B9EB020E63EB070C0138DB
:100D5000A8E73146EDE7034699E73046D4E7D646A3
:100D60007FE7634402384DE70646234608460FE70F
:100D7000023E634430E700BF704700BF80B584B0D7
:100D800000AF786001F05EF9F860FA687B689A421B
:100D900003D3FA687B68D31A03E0FA687B68D31A36
:100DA000013B18461037BD4680BD000080B582B0BB
:100DB00000AF7860391D4FF6FF730122034804F03D
:100DC0002BFB7B6818460837BD4680BDE801002034
:100DD00080B58CB000AF786007F1080307F110020E
:100DE0000021786801F059FA0346002B1AD13B69BB
:100DF00019460E4805F0D8FB0023FB620BE007F113
:100E00000802FB6A13441B781946094805F0CCFB1D
:100E1000FB6A0133FB623A6AFB6A9A42EFD80548E3
:100E200005F02AFC00BF3037BD4680BD587300086E
:100E3000747300087C73000880B500AF01224FF482
:100E40000071074802F0CAF8012001F007F90022FA
:100E50004FF40071024802F0C1F800BF80BD00BF2E
:100E60000000024080B582B000AF78607B681B68EC
:100E7000204A934239D17B681B7F012B35D11D4B12
:100E80001B6A03F00203002B17D10021786803F0DE
:100E90003BFD0346184A13607B681B681A6A7B682F
:100EA0001B6822F00A021A627B681B681A6A7B6858
:100EB0001B6842F002021A6217E00021786803F012
:100EC00023FD03460D4A13607B681B681A6A7B6822
:100ED0001B6822F00A021A627B681A687B681B682A
:100EE000126A1A62064B01221A7000BF0837BD460B
:100EF00080BD00BF00000140900000209400002051
:100F00008C0000200000000080B582B000AF1C4BB8
:100F10001A681C4B1B689A4206D9194B1A68194B60
:100F20001B68D31A7B6008E0164B1A68144B1B68C9
:100F3000D31A03F57F43FF337B607868FFF7FAFA33
:100F40000DA3D3E90023FFF76FFB02460B461046C3
:100F500019464FF000024FF08043FFF78FFC024626
:100F60000B4610461946FFF771FD03461846083731
:100F7000BD4680BDAFF30080006F8104C58FA13FE7
:100F8000940000209000002080B500AF114B1B683A
:100F90001846FFF7F3FE0346C72B18D901F052F8A5
:100FA00003460C4A1360FFF747FF0B4B1B78002BDF
:100FB0000DD0FFF7A9FF0346084A1360074B1B68D3
:100FC0001946074805F0F0FA034B00221A7000BFDB
:100FD00080BD00BF980000208C0000209C000020F5
:100FE0008873000880B500AF00F0C6FF00F014F869
:100FF00000F082FA00F056FA00F08EF900F016F9CF
:1010000000F0D8F900F09EF800F066F800F014FE49
:1010100000F03CFEFCE7000080B594B000AF07F1A3
:101020001C0334220021184605F006FC07F10803D2
:1010300000221A605A609A60DA601A6100237B60AD
:10104000234B1B6C224A43F080531364204B1B6CD0
:1010500003F080537B607B6800233B601D4B1B6863
:1010600023F440431B4A43F480431360194B1B682D
:1010700003F440433B603B680223FB610123BB62F6
:101080001023FB6200237B6307F11C03184602F068
:1010900023FB0346002B01D000F0B2FA0F23BB6004
:1010A0000023FB6000233B6100237B610023BB61C5
:1010B00007F108030021184601F0C4FF0346002B86
:1010C00001D000F09DFA00BF5037BD4680BD00BF83
:1010D000003802400070004080B500AF174B184A3E
:1010E0001A60164B02225A60144B00229A60134B6E
:1010F0000022DA60114B4FF440221A610F4B4FF47B
:1011000080125A610D4B00221A760C4B00225A763F
:101110000A4B00229A76094B0122DA76074B00220D
:101120001A77064B00225A77044800F0BBFF0346AB
:10113000002B01D000F064FA00BF80BDA0000020A9
:101140000064004080B58AB000AF07F118030022A8
:101150001A605A609A60DA6007F1100300221A6080
:101160005A603B4600221A605A609A60DA602D4B42
:101170002D4A1A602B4B0F225A602A4B00229A608C
:10118000284B4FF6FF72DA60264B00221A61254B7E
:1011900000225A61234B00229A61224802F03AFD54
:1011A0000346002B01D000F02BFA4FF48053BB61B3
:1011B00007F1180319461B4803F0DEFA0346002B1B
:1011C00001D000F01DFA174802F006FF0346002B7D
:1011D00001D000F015FA00233B6100237B6107F189
:1011E000100319460F4804F037F80346002B01D0CE
:1011F00000F006FA0A233B6001237B600023BB60FA
:101200000023FB603B4600221946064803F056F9CE
:101210000346002B01D000F0F3F900BF2837BD468C
:1012200080BD00BFC80000200000014080B58EB026
:1012300000AF07F1280300221A605A609A60DA6052
:1012400007F1200300221A605A603B1D00221A6039
:101250005A609A60DA601A615A619A612D4B4FF0B8
:1012600080421A602B4B40F23F625A60294B0022A9
:101270009A60284B6322DA60264B00221A61254BC4
:1012800000229A61234802F0C5FC0346002B01D0DE
:1012900000F0B6F94FF48053BB6207F128031946FA
:1012A0001C4803F069FA0346002B01D000F0A8F9AE
:1012B000184802F06FFD0346002B01D000F0A0F9A2
:1012C00000233B6200237B6207F12003194611488B
:1012D00003F0C2FF0346002B01D000F091F9602318
:1012E0007B603123BB600023FB6000237B613B1DDF
:1012F00000221946074803F07DF90346002B01D070
:1013000000F07EF9034800F0D9FA00BF3837BD4637
:1013100080BD00BF1001002080B586B000AF07F18E
:10132000080300221A605A609A60DA603B46002285
:101330001A605A601D4B1E4A1A601C4B40F23F62F5
:101340005A601A4B00229A60184B42F20F72DA6010
:10135000164B00221A61154B00229A61134802F0C5
:1013600059FC0346002B01D000F04AF94FF480539A
:10137000BB6007F1080319460C4803F0FDF903466A
:10138000002B01D000F03CF900233B6000237B6080
:101390003B461946054803F05FFF0346002B01D08A
:1013A00000F02EF900BF1837BD4680BD580100205F
:1013B0000004004080B58EB000AF07F12803002282
:1013C0001A605A609A60DA6007F1200300221A60FE
:1013D0005A603B1D00221A605A609A60DA601A61F6
:1013E0005A619A612D4B2E4A1A602C4B0F225A607B
:1013F0002A4B00229A60294B44F61F62DA60274B81
:1014000000221A61254B00229A61244802F002FC56
:101410000346002B01D000F0F3F84FF48053BB6279
:1014200007F1280319461D4803F0A6F90346002BCF
:1014300001D000F0E5F8194802F0ACFC0346002B9F
:1014400001D000F0DDF800233B6200237B6207F14E
:1014500020031946114803F0FFFE0346002B01D07C
:1014600000F0CEF860237B6040F2DB53BB600023CA
:10147000FB6000237B613B1D00221946074803F0F7
:10148000B9F80346002B01D000F0BAF8034800F089
:1014900015FA00BF3837BD4680BD00BFA00100204F
:1014A0000008004080B500AF114B124A1A60104B83
:1014B0004FF4E1325A600E4B00229A600C4B00222E
:1014C000DA600B4B00221A61094B0C225A61084B5F
:1014D00000229A61064B0022DA61054803F04CFFB6
:1014E0000346002B01D000F08BF800BF80BD00BF89
:1014F000E80100200044004080B58AB000AF07F149
:10150000140300221A605A609A60DA601A6100239C
:101510003B61384B1B6B374A43F004031363354B75
:101520001B6B03F004033B613B690023FB60314B01
:101530001B6B304A43F0800313632E4B1B6B03F08D
:101540008003FB60FB680023BB602A4B1B6B294AAE
:1015500043F001031363274B1B6B03F00103BB60D4
:10156000BB6800237B60234B1B6B224A43F00203C2
:101570001363204B1B6B03F002037B607B6800222C
:101580004FF458711C4801F029FD00224FF40071FE
:101590001A4801F023FD4FF400537B610023BB6127
:1015A0000023FB6107F114031946134801F06AFB9D
:1015B0004FF458737B610123BB610023FB6100235F
:1015C0003B6207F1140319460B4801F05BFB4FF433
:1015D00000737B610123BB610023FB6100233B623D
:1015E00007F114031946054801F04CFB00BF2837EA
:1015F000BD4680BD003802400008024000000240A5
:1016000080B400AF72B600BF00BFFDE780B485B004
:1016100000AF0346FB71FB79B42B01D9B423FB71F6
:10162000FB794FF4FA6202FB03F30A4A82FB0312CE
:101630001A44D211DB17D31A03F5FA73FB60064B79
:101640001B68FA685A6300BF1437BD465DF8047B17
:10165000704700BFB7600BB6A001002080B500AF97
:101660000C4B1B680F2B03D80B4BB4221A700AE0EB
:10167000084B1B681E2B03D8074B5A221A7002E036
:10168000054B00221A70044B1B781846FFF7BEFF6B
:1016900000BF80BD9C0000203002002080B483B0D9
:1016A00000AF00237B60104B5B6C0F4A43F4804318
:1016B00053640D4B5B6C03F480437B607B680023B9
:1016C0003B60094B1B6C084A43F080531364064B84
:1016D0001B6C03F080533B603B6800BF0C37BD467A
:1016E0005DF8047B704700BF0038024080B58AB0C7
:1016F00000AF786007F1140300221A605A609A6004
:10170000DA601A617B681B681D4A934234D100235A
:101710003B611C4B1B6C1B4A43F000731364194B59
:101720001B6C03F000733B613B690023FB60154BAE
:101730001B6B144A43F001031363124B1B6B03F042
:101740000103FB60FB684FF4C0537B610223BB6164
:101750000023FB6103233B6209237B6207F114032F
:101760001946094801F08EFA00220021142001F0E8
:10177000C0F9142001F0D9F900BF2837BD4680BD5B
:1017800000640040003802400000024080B58CB088
:1017900000AF786007F11C0300221A605A609A605B
:1017A000DA601A617B681B683F4A934235D1002397
:1017B000BB613E4B5B6C3D4A43F0010353643B4BC2
:1017C0005B6C03F00103BB61BB6900237B61374B9A
:1017D0001B6B364A43F001031363344B1B6B03F05E
:1017E00001037B617B694FF48073FB6102233B62E1
:1017F00000237B620023BB620123FB6207F11C0311
:1018000019462B4801F03EFA002200211B2001F06E
:1018100070F91B2001F089F942E07B681B68B3F185
:10182000804F0ED100233B61204B1B6C1F4A43F0BD
:10183000010313641D4B1B6C03F001033B613B6907
:101840002EE07B681B681B4A934216D10023FB6085
:10185000164B1B6C154A43F002031364134B1B6CAD
:1018600003F00203FB60FB68002200211D2001F051
:1018700040F91D2001F059F912E07B681B680E4AFF
:1018800093420DD10023BB60084B1B6C074A43F009
:1018900004031364054B1B6C03F00403BB60BB68BB
:1018A00000BF3037BD4680BD000001400038024017
:1018B00000000240000400400008004080B58AB0EB
:1018C00000AF786007F1140300221A605A609A6032
:1018D000DA601A617B681B68B3F1804F1ED1002368
:1018E0003B61224B1B6B214A43F0010313631F4BE7
:1018F0001B6B03F001033B613B6920237B610223E7
:10190000BB610023FB6100233B6201237B6207F183
:1019100014031946164801F0B5F922E07B681B68EC
:10192000144A93421DD10023FB60104B1B6B0F4ADE
:1019300043F0020313630D4B1B6B03F00203FB60C8
:10194000FB6840237B610223BB610023FB61002312
:101950003B6202237B6207F114031946064801F03B
:1019600091F900BF2837BD4680BD00BF0038024056
:1019700000000240000800400004024080B58AB028
:1019800000AF786007F1140300221A605A609A6071
:10199000DA601A617B681B681D4A934233D10023C9
:1019A0003B611C4B1B6C1B4A43F400331364194B03
:1019B0001B6C03F400333B613B690023FB60154B58
:1019C0001B6B144A43F001031363124B1B6B03F0B0
:1019D0000103FB60FB680C237B610223BB610023D6
:1019E000FB6103233B6207237B6207F11403194663
:1019F000094801F047F900220021262001F079F87A
:101A0000262001F092F800BF2837BD4680BD00BFF8
:101A100000440040003802400000024080B400AFA3
:101A200000BFFDE780B400AF00BFFDE780B400AFAA
:101A300000BFFDE780B400AF00BFFDE780B400AF9A
:101A400000BFFDE780B400AF00BFBD465DF8047B7A
:101A5000704780B400AF00BFBD465DF8047B70479F
:101A600080B400AF00BFBD465DF8047B704780B511
:101A700000AF00F0D3FA00BF80BD000080B500AF1A
:101A8000024800F02CFD00BF80BD00BFA000002078
:101A900080B500AF024802F021FC00BF80BD00BF4E
:101AA000C800002080B500AF024802F017FC00BF5C
:101AB00080BD00BF5801002080B500AF024803F090
:101AC0005BFD00BF80BD00BFE801002080B586B08F
:101AD00000AFF860B9607A6000237B610AE0AFF381
:101AE00000800146BB685A1CBA60CAB21A707B6992
:101AF00001337B617A697B689A42F0DB7B68184628
:101B00001837BD4680BD80B586B000AFF860B960BB
:101B10007A6000237B6109E0BB685A1CBA601B78BD
:101B20001846FFF743F97B6901337B617A697B686B
:101B30009A42F1DB7B6818461837BD4680BD80B4F9
:101B400083B000AF78604FF0FF3318460C37BD46C6
:101B50005DF8047B704780B483B000AF7860396073
:101B60003B684FF400525A60002318460C37BD46BC
:101B70005DF8047B704780B483B000AF78600123C8
:101B800018460C37BD465DF8047B704780B485B0BD
:101B900000AFF860B9607A60002318461437BD467C
:101BA0005DF8047B7047000080B586B000AF7860B8
:101BB000144A154BD31A7B617B693B61134B1B683D
:101BC000002B02D1114B124A1A60104B1A687B6825
:101BD00013443A699A4207D204F07CFE03460C2271
:101BE0001A604FF0FF3309E0084B1B68FB60074B9E
:101BF0001A687B681344054A1360FB681846183757
:101C0000BD4680BD00000220000400003402002018
:101C1000A804002080B400AF064BD3F88830054AF2
:101C200043F47003C2F8883000BFBD465DF8047B02
:101C3000704700BF00ED00E080B500AF0C4804F035
:101C40001BFD01220B490C4803F071FC00210B48DD
:101C500002F01CFA00210A4802F0F6F8094802F0E6
:101C600029F80021084802F0EFF800BF80BD00BF4E
:101C70009C7300083C020020E8010020C8000020FE
:101C80001001002058010020A001002080B500AF05
:101C900000F0E8F800F028F900F0BAF800F032F8A7
:101CA00000F006F8FFF7DAFCFFF76EF900BF80BD21
:101CB00080B500AF114B1B681846FFF75FF803466D
:101CC0000A2B19D900F0BEF903460C4A13600C4BDD
:101CD0001B684FF080429B085363094B1B6801331C
:101CE000074A13604FF08043DA6A054B1B689A423B
:101CF00002D2034B00221A6000BF80BD48030020BF
:101D00004403002080B582B000AFFB1D184600F0F0
:101D100059F80346002B13D0F91D4FF6FF7301222B
:101D2000094803F079FBFB79312B03D1074B64227F
:101D30001A6005E0FB79322B02D1044BC8221A60ED
:101D400000BF0837BD4680BDE80100200400002028
:101D500080B582B000AF78607B681B680C4A934204
:101D600011D10C4B1B781A460B4B19780B4B99541D
:101D7000084B1B780133DAB2064B1A700122064970
:101D8000074803F0D4FB00BF0837BD4680BD00BF45
:101D900000440040410300203C020020400200209B
:101DA000E801002080B582B000AF7860044B1B686A
:101DB000012B01D100F04CF800BF0837BD4680BDB3
:101DC0000800002080B483B000AF78600D4B1A7813
:101DD0000D4B1B789A420ED00A4B1B781A460B4BC0
:101DE0009A5C7B681A70074B1B780133DAB2054B9B
:101DF0001A70012300E0002318460C37BD465DF839
:101E0000047B704740030020410300204002002073
:101E100080B500AF0B4B1B68002B10D10A4B1B6821
:101E20001846FEF7ABFF0246084B1B689A4206D3E2
:101E300000F008F90346044A136000F009F800BFF7
:101E400080BD00BF080000203802002004000020F0
:101E500080B500AF2021024801F0D9F800BF80BD55
:101E60000000024080B582B000AF1B4B1B681846D3
:101E7000FEF784FF0346002B2AD000F0E3F8034668
:101E8000154A13604FF40051144801F08FF80346CF
:101E9000FB71FB79002B18D1114B1B78322B09D128
:101EA000104B01221A700E4B1B780133DAB20C4B27
:101EB0001A700DE00A4B1B78322B09D8084B1B789F
:101EC0000133DAB2064B1A7002E0054B00221A7099
:101ED00000BF0837BD4680BD4C030020000802400B
:101EE000500300205103002080B400AF0B4B1B783F
:101EF000002B0DD0094B00221A70094B1B68002BD8
:101F000003D1074B01221A6002E0054B00221A6040
:101F100000BFBD465DF8047B704700BF5103002041
:101F200008000020DFF834D0FFF774FE0C480D499C
:101F30000D4A002302E0D458C4500433C4188C4224
:101F4000F9D30A4A0A4C002301E013600432A2428A
:101F5000FBD304F0C5FCFFF745F8704700000220F2
:101F600000000020700000200074000870000020B5
:101F7000A4040020FEE7000080B500AF0E4B1B68F4
:101F80000D4A43F4007313600B4B1B680A4A43F479
:101F900080631360084B1B68074A43F48073136027
:101FA000032000F09BFD0F2000F008F8FFF776FB00
:101FB0000023184680BD00BF003C024080B582B0BF
:101FC00000AF7860124B1A68124B1B7819464FF419
:101FD0007A73B3FBF1F3B2FBF3F3184600F0B3FDF1
:101FE0000346002B01D001230EE07B680F2B0AD89B
:101FF000002279684FF0FF3000F07BFD064A7B68D5
:102000001360002300E0012318460837BD4680BD59
:1020100000000020100000200C00002080B400AF61
:10202000064B1B781A46064B1B681344044A136080
:1020300000BFBD465DF8047B704700BF1000002064
:102040005403002080B400AF034B1B681846BD4604
:102050005DF8047B704700BF5403002080B584B056
:1020600000AF7860FFF7EEFFB8607B68FB60FB684D
:10207000B3F1FF3F05D00A4B1B781A46FB681344A7
:10208000FB6000BFFFF7DEFF0246BB68D31AFA68A9
:102090009A42F7D800BF00BF1037BD4680BD00BFD1
:1020A0001000002080B584B000AF78607B68002B02
:1020B00001D10123EDE07B6893F82030DBB2002BE7
:1020C00002D17868FFF712FB7B681B681A687B688F
:1020D0001B6842F001021A60FFF7B4FFF86012E0DB
:1020E000FFF7B0FF0246FB68D31A0A2B0BD97B68B7
:1020F0005B6A43F400327B685A627B68052283F88E
:1021000020200123C5E07B681B685B6803F00103A6
:10211000002BE5D07B681B681A687B681B6822F07F
:1021200002021A60FFF78EFFF86012E0FFF78AFFE5
:102130000246FB68D31A0A2B0BD97B685B6A43F40F
:1021400000327B685A627B68052283F820200123D5
:102150009FE07B681B685B6803F00203002BE5D1FE
:102160007B681B7E012B08D17B681B681A687B6823
:102170001B6842F080021A6007E07B681B681A68DF
:102180007B681B6822F080021A607B685B7E012BF3
:1021900008D17B681B681A687B681B6842F04002A4
:1021A0001A6007E07B681B681A687B681B6822F06E
:1021B00040021A607B689B7E012B08D17B681B68FC
:1021C0001A687B681B6842F020021A6007E07B688F
:1021D0001B681A687B681B6822F020021A607B6803
:1021E000DB7E012B08D17B681B681A687B681B6843
:1021F00022F010021A6007E07B681B681A687B688F
:102200001B6842F010021A607B681B7F012B08D10B
:102210007B681B681A687B681B6842F008021A60BA
:1022200007E07B681B681A687B681B6822F008025D
:102230001A607B685B7F012B08D17B681B681A687A
:102240007B681B6842F004021A6007E07B681B6829
:102250001A687B681B6822F004021A607B689A681F
:102260007B68DB681A437B681B691A437B685B6980
:1022700042EA03017B685B685A1E7B681B680A435D
:10228000DA617B6800225A627B68012283F8202091
:10229000002318461037BD4680BD80B487B000AF1C
:1022A000F860B9607A603B60FB6893F82030FB759A
:1022B000FB7D012B03D0FB7D022B40F00381BB682B
:1022C000002B0ED1FB681B68DB6803F00303002BB7
:1022D00016D1FB685B6A43F40012FB685A62012363
:1022E000F7E0FB681B681B6903F00303002B07D1B1
:1022F000FB685B6A43F40012FB685A620123E8E062
:10230000FB681A68BB681B331B0113441B6803F08E
:1023100004027B689A607B689B68002B0CD1FB6889
:102320001A68BB681B331B0113441B685B0DC3F3A6
:102330000A027B681A600BE0FB681A68BB681B33F3
:102340001B0113441B68DB0823F060427B685A6062
:10235000FB681A68BB681B331B0113441B6803F03E
:1023600002027B68DA60FB681A68BB681B331B01DA
:10237000134404331B6803F00803002B03D07B686D
:1023800008221A610BE0FB681A68BB681B331B014B
:10239000134404331B6803F00F027B681A61FB6867
:1023A0001A68BB681B331B01134404331B681B0AE8
:1023B000DAB27B689A61FB681A68BB681B331B0141
:1023C000134404331B681B0C9AB27B685A61FB6888
:1023D0001A68BB681B01134403F5DC731B68DAB28F
:1023E0003B681A70FB681A68BB681B01134403F54D
:1023F000DC731B681A0A3B680133D2B21A70FB689F
:102400001A68BB681B01134403F5DC731B681A0CC4
:102410003B680233D2B21A70FB681A68BB681B01B2
:10242000134403F5DC731B681A0E3B680333D2B206
:102430001A70FB681A68BB681B01134403F5DE734E
:102440001A683B680433D2B21A70FB681A68BB681A
:102450001B01134403F5DE731B681A0A3B6805333E
:10246000D2B21A70FB681A68BB681B01134403F5EB
:10247000DE731B681A0C3B680633D2B21A70FB6815
:102480001A68BB681B01134403F5DE731B681A0E40
:102490003B680733D2B21A70BB68002B08D1FB68C7
:1024A0001B68DA68FB681B6842F02002DA6007E00C
:1024B000FB681B681A69FB681B6842F020021A61FE
:1024C000002306E0FB685B6A43F48022FB685A62E3
:1024D000012318461C37BD465DF8047B704780B564
:1024E0008AB000AF786000237B627B681B685B6901
:1024F0003B627B681B685B68FB617B681B689B6851
:10250000BB617B681B68DB687B617B681B681B6940
:102510003B617B681B689B69FB603B6A03F00103BE
:10252000002B7CD0BB6903F00103002B23D07B6818
:102530001B6801229A60BB6903F00203002B03D0E1
:10254000786800F083F916E0BB6903F00403002B00
:1025500004D07B6A43F400637B620CE0BB6903F048
:102560000803002B04D07B6A43F480537B6202E0B3
:10257000786800F089F9BB6903F48073002B24D0DC
:102580007B681B684FF480729A60BB6903F4007328
:10259000002B03D0786800F063F916E0BB6903F400
:1025A0008063002B04D07B6A43F400537B620CE011
:1025B000BB6903F40063002B04D07B6A43F48043BF
:1025C0007B6202E0786800F069F9BB6903F480334C
:1025D000002B24D07B681B684FF480329A60BB6963
:1025E00003F40033002B03D0786800F043F916E0C1
:1025F000BB6903F48023002B04D07B6A43F40043BF
:102600007B620CE0BB6903F40023002B04D07B6ADF
:1026100043F480337B6202E0786800F049F93B6A5A
:1026200003F00803002B0CD07B6903F01003002B90
:1026300007D07B6A43F400737B627B681B681022BF
:10264000DA603B6A03F00403002B0BD07B6903F0D4
:102650000803002B06D07B681B680822DA607868C4
:1026600000F030F93B6A03F00203002B09D07B68CD
:102670001B68DB6803F00303002B02D07868FEF7C9
:10268000A7FB3B6A03F04003002B0CD03B6903F02F
:102690001003002B07D07B6A43F480637B627B6866
:1026A0001B6810221A613B6A03F02003002B0BD039
:1026B0003B6903F00803002B06D07B681B680822E7
:1026C0001A61786800F012F93B6A03F01003002BDE
:1026D00009D07B681B681B6903F00303002B02D041
:1026E000786800F0F9F83B6A03F40033002B0BD054
:1026F000FB6903F01003002B06D07B681B681022D7
:102700005A60786800F0FCF83B6A03F48033002BD1
:102710000BD0FB6903F00803002B06D07B681B6815
:1027200008225A60786800F0F5F83B6A03F4004329
:10273000002B7BD0FB6903F00403002B72D03B6AB3
:1027400003F48073002B08D0FB6803F00103002B17
:1027500003D07B6A43F001037B623B6A03F400739E
:10276000002B08D0FB6803F00203002B03D07B6A28
:1027700043F002037B623B6A03F48063002B08D0C2
:10278000FB6803F00403002B03D07B6A43F00403CF
:102790007B623B6A03F40063002B43D0FB6803F0C9
:1027A0007003002B3ED0FB6803F07003602B2BD02E
:1027B000602B2ED8502B22D0502B2AD8402B19D04A
:1027C000402B26D8302B10D0302B22D8102B02D003
:1027D000202B05D01DE07B6A43F008037B6219E0E3
:1027E0007B6A43F010037B6214E07B6A43F02003B2
:1027F0007B620FE07B6A43F040037B620AE07B6A06
:1028000043F080037B6205E07B6A43F480737B6264
:1028100000E000BF7B681B689A697B681B6822F038
:1028200070029A617B681B6804225A607B6A002BE5
:1028300008D07B685A6A7B6A1A437B685A62786858
:1028400000F072F800BF2837BD4680BD80B483B069
:1028500000AF786000BF0C37BD465DF8047B704761
:1028600080B483B000AF786000BF0C37BD465DF820
:10287000047B704780B483B000AF786000BF0C3732
:10288000BD465DF8047B704780B483B000AF7860CC
:1028900000BF0C37BD465DF8047B704780B483B041
:1028A00000AF786000BF0C37BD465DF8047B704711
:1028B00080B483B000AF786000BF0C37BD465DF8D0
:1028C000047B704780B483B000AF786000BF0C37E2
:1028D000BD465DF8047B704780B483B000AF78607C
:1028E00000BF0C37BD465DF8047B704780B483B0F1
:1028F00000AF786000BF0C37BD465DF8047B7047C1
:1029000080B483B000AF786000BF0C37BD465DF87F
:10291000047B704780B483B000AF786000BF0C3791
:10292000BD465DF8047B704780B483B000AF78602B
:1029300000BF0C37BD465DF8047B704780B485B09E
:1029400000AF78607B6803F00703FB600C4BDB682B
:10295000BB60BA684FF6FF031340BB60FB681A0206
:10296000BB68134343F0BF6343F40033BB60044AC6
:10297000BB68D36000BF1437BD465DF8047B704769
:1029800000ED00E080B400AF044BDB681B0A03F0ED
:1029900007031846BD465DF8047B704700ED00E074
:1029A00080B483B000AF0346FB7197F90730002B6A
:1029B0000BDBFB7903F01F02074997F907305B092E
:1029C000012000FA02F241F8232000BF0C37BD4677
:1029D0005DF8047B704700BF00E100E080B483B085
:1029E00000AF03463960FB7197F90730002B0ADB13
:1029F0003B68DAB20C4997F907301201D2B20B44A6
:102A000083F800230AE03B68DAB20849FB7903F057
:102A10000F03043B1201D2B20B441A7600BF0C37ED
:102A2000BD465DF8047B704700E100E000ED00E08A
:102A300080B489B000AFF860B9607A60FB6803F0D9
:102A40000703FB61FB69C3F10703042B28BF0423C1
:102A5000BB61FB690433062B02D9FB69033B00E031
:102A600000237B614FF0FF32BB6902FA03F3DA43C4
:102A7000BB681A407B699A404FF0FF317B6901FACD
:102A800003F3D9437B680B40134318462437BD46F4
:102A90005DF8047B7047000080B582B000AF7860BD
:102AA0007B68013BB3F1807F01D301230FE00A4A29
:102AB0007B68013B53600F214FF0FF30FFF78EFF23
:102AC000054B00229A60044B07221A600023184627
:102AD0000837BD4680BD00BF10E000E080B582B081
:102AE00000AF78607868FFF729FF00BF0837BD4660
:102AF00080BD80B586B000AF0346B9607A60FB73D5
:102B000000237B61FFF73EFF78617A68B9687869D6
:102B1000FFF78EFF024697F90F3011461846FFF770
:102B20005DFF00BF1837BD4680BD80B582B000AFE5
:102B30000346FB7197F907301846FFF731FF00BFD6
:102B40000837BD4680BD80B582B000AF7860786838
:102B5000FFF7A2FF034618460837BD4680BD80B583
:102B600084B000AF78607B689B6DFB60FFF76AFA0A
:102B7000B8607B6893F83530DBB2022B08D07B68F5
:102B800080225A657B68002283F83420012352E0BA
:102B90007B681B681A687B681B6822F016021A6043
:102BA0007B681B685A697B681B6822F080025A6147
:102BB0007B681B6C002B03D17B689B6C002B07D0C0
:102BC0007B681B681A687B681B6822F008021A6021
:102BD0007B681B681A687B681B6822F001021A6018
:102BE00013E0FFF72FFA0246BB68D31A052B0CD966
:102BF0007B6820225A657B68032283F835207B6836
:102C0000002283F83420032315E07B681B681B68CF
:102C100003F00103002BE4D17B68DB6D3F229A4077
:102C2000FB689A607B68012283F835207B6800226C
:102C300083F83420002318461037BD4680BD80B489
:102C400083B000AF78607B6893F83530DBB2022B3D
:102C500004D07B6880225A6501230CE07B68052242
:102C600083F835207B681B681A687B681B6822F034
:102C700001021A60002318460C37BD465DF8047B3C
:102C80007047000080B489B000AF786039600023DD
:102C90007B6100233B610023BB610023FB6165E195
:102CA0000122FB6902FA03F37B613B681B687A69C6
:102CB00013403B613A697B699A4240F054813B681A
:102CC0005B6803F00303012B05D03B685B6803F0EE
:102CD0000303022B30D17B689B68BB61FB695B00FF
:102CE000032202FA03F3DB43BA691340BB613B687A
:102CF000DA68FB695B0002FA03F3BA691343BB614C
:102D00007B68BA699A607B685B68BB610122FB697A
:102D100002FA03F3DB43BA691340BB613B685B68AB
:102D20001B0903F00102FB6902FA03F3BA691343BA
:102D3000BB617B68BA695A603B685B6803F0030358
:102D4000032B17D07B68DB68BB61FB695B00032248
:102D500002FA03F3DB43BA691340BB613B689A682C
:102D6000FB695B0002FA03F3BA691343BB617B683A
:102D7000BA69DA603B685B6803F00303022B23D176
:102D8000FB69DA087B68083253F82230BB61FB69C3
:102D900003F007039B000F2202FA03F3DB43BA6937
:102DA0001340BB613B681A69FB6903F007039B0092
:102DB00002FA03F3BA691343BB61FB69DA087B6863
:102DC0000832B96943F822107B681B68BB61FB6954
:102DD0005B00032202FA03F3DB43BA691340BB61D1
:102DE0003B685B6803F00302FB695B0002FA03F3D4
:102DF000BA691343BB617B68BA691A603B685B6858
:102E000003F44033002B00F0AE800023FB605D4BE9
:102E10005B6C5C4A43F4804353645A4B5B6C03F431
:102E20008043FB60FB68584AFB699B08023352F8F9
:102E30002330BB61FB6903F003039B000F2202FAFE
:102E400003F3DB43BA691340BB617B684F4A93428B
:102E500025D07B684E4A93421FD07B684D4A9342EF
:102E600019D07B684C4A934213D07B684B4A9342FB
:102E70000DD07B684A4A934207D07B68494A934207
:102E800001D106230CE007230AE0052308E0042310
:102E900006E0032304E0022302E0012300E0002314
:102EA000FA6902F0030292009340BA691343BB61CE
:102EB0003549FB699B080233BA6941F823203A4B34
:102EC0009B68BB613B69DB43BA691340BB613B68EC
:102ED0005B6803F48013002B03D0BA693B6913438A
:102EE000BB61314ABB6993602F4BDB68BB613B69B7
:102EF000DB43BA691340BB613B685B6803F40013B2
:102F0000002B03D0BA693B691343BB61264ABB69F6
:102F1000D360254B5B68BB613B69DB43BA691340F7
:102F2000BB613B685B6803F40033002B03D0BA69D4
:102F30003B691343BB611C4ABB6953601A4B1B6856
:102F4000BB613B69DB43BA691340BB613B685B68AB
:102F500003F48033002B03D0BA693B691343BB6190
:102F6000114ABB691360FB690133FB61FB690F2BDD
:102F70007FF696AE00BF00BF2437BD465DF8047BE8
:102F8000704700BF00380240003801400000024096
:102F90000004024000080240000C02400010024001
:102FA0000014024000180240003C014080B485B08B
:102FB00000AF78600B467B807B681A697B88134082
:102FC000002B02D00123FB7301E00023FB73FB7B8A
:102FD00018461437BD465DF8047B704780B483B053
:102FE00000AF78600B467B8013467B707B78002BAC
:102FF00003D07A887B689A6103E07B881A047B6837
:103000009A6100BF0C37BD465DF8047B704780B401
:1030100085B000AF78600B467B807B685B69FB60A6
:103020007A88FB6813401A04FB68D9437B880B40FD
:103030001A437B689A6100BF1437BD465DF8047B74
:103040007047000080B584B000AF786039607B685D
:10305000002B01D10123CCE0684B1B6803F00F0368
:103060003A689A420CD9654B3A68D2B21A70634BEF
:103070001B6803F00F033A689A4201D00123B8E0BD
:103080007B681B6803F00203002B20D07B681B6861
:1030900003F00403002B05D0594B9B68584A43F4B6
:1030A000E05393607B681B6803F00803002B05D096
:1030B000534B9B68524A43F460439360504B9B6868
:1030C00023F0F0027B689B684D4913438B607B685B
:1030D0001B6803F00103002B44D07B685B68012B65
:1030E00007D1474B1B6803F40033002B19D1012390
:1030F0007FE07B685B68022B03D07B685B68032BF7
:1031000007D13F4B1B6803F00073002B09D101234B
:103110006FE03B4B1B6803F00203002B01D101233E
:1031200067E0374B9B6823F003027B685B68344998
:1031300013438B60FEF786FFF8600AE0FEF782FF1C
:103140000246FB68D31A41F28832934201D9032325
:103150004FE02B4B9B6803F00C027B685B689B0085
:103160009A42EBD1254B1B6803F00F033A689A4251
:103170000CD2224B3A68D2B21A70204B1B6803F073
:103180000F033A689A4201D0012332E07B681B6842
:1031900003F00403002B08D0194B9B6823F4E05282
:1031A0007B68DB68164913438B607B681B6803F000
:1031B0000803002B09D0124B9B6823F460427B6804
:1031C0001B69DB000E4913438B6000F055F8024683
:1031D0000B4B9B681B0903F00F030A49CB5C22FAD7
:1031E00003F3094A1360094B1B681846FEF7E6FE15
:1031F000002318461037BD4680BD00BF003C02408A
:1032000000380240A4730008000000200C000020D9
:1032100080B400AF034B1B681846BD465DF8047BC5
:10322000704700BF0000002080B500AFFFF7F0FF3F
:103230000246054B9B689B0A03F007030349CB5CDE
:1032400022FA03F3184680BD00380240B473000828
:1032500080B500AFFFF7DCFF0246054B9B685B0BB8
:1032600003F007030349CB5C22FA03F3184680BD41
:1032700000380240B47300082DE9B04FAEB000AF83
:103280000023C7F8AC300023C7F8B4300023C7F8D8
:10329000A8300023C7F8A4300023C7F8B030CB4BC8
:1032A0009B6803F00C030C2B00F2068201A252F87B
:1032B00023F000BFE9320008B9360008B93600082B
:1032C000B9360008F1320008B9360008B9360008EE
:1032D000B9360008F9320008B9360008B9360008D6
:1032E000B9360008E9340008B94BC7F8B030E7E157
:1032F000B84BC7F8B030E3E1B44B5B6803F03F0371
:10330000C7F8AC30B14B5B6803F48003002B71D07D
:10331000AE4B5B689B090022C7F89830C7F89C2029
:10332000D7F89830C3F30803C7F890300023C7F8E4
:103330009430D7E9244522462B464FF000004FF049
:103340000001590141EAD261500102460B46214673
:10335000511A3964294663EB01037B644FF0000284
:103360004FF00003D7E9108949468B01414643EAF3
:10337000916341468A014146511AB963494663EB5C
:103380000103FB634FF000024FF00003D7E90E8901
:103390004946CB00414643EA51734146CA001046B4
:1033A0001946034622469B183B632B460A4642EBCE
:1033B00003037B634FF000024FF00003D7E90C4595
:1033C00029464B02214643EAD15321464A02104680
:1033D0001946D7F8AC300022C7F88830C7F88C20DF
:1033E000D7E92223FDF752FB02460B461346C7F8E6
:1033F000B43067E0754B5B689B090022C7F88030EA
:10340000C7F88420D7F88030C3F30803BB670023D4
:10341000FB67D7E91E4522462B464FF000004FF0D0
:103420000001590141EAD261500102460B46214692
:10343000511AB962294663EB0103FB624FF00002A7
:103440004FF00003D7E90A8949468B01414643EA18
:10345000916341468A014146B2EB010A494663EB5A
:10346000010B4FF000024FF000034FEACB0343EA99
:103470005A734FEACA0292469B4623461AEB03034D
:103480003B622B464BEB03037B624FF000024FF095
:103490000003D7E9084529468B02214643EA9153A8
:1034A00021468A0210461946D7F8AC3000223B6705
:1034B0007A67D7E91C23FDF7E9FA02460B46134663
:1034C000C7F8B430414B5B681B0C03F003030133B6
:1034D0005B00C7F8A830D7F8B420D7F8A830B2FB03
:1034E000F3F3C7F8B030EBE0384B5B6803F03F0311
:1034F000C7F8AC30354B5B6803F48003002B6BD00E
:10350000324B5B689B090022BB66FA66BB6EC3F355
:1035100008033B6600237B66D7E9184522462B4605
:103520004FF000004FF00001590141EAD261500113
:1035300002460B462146511AB961294663EB010345
:10354000FB614FF000024FF00003D7E906AB59468C
:103550008B01514643EA916351468A015146B2EBD1
:103560000108594663EB01094FF000024FF00003D8
:103570004FEAC90343EA58734FEAC8029046994696
:10358000234618EB03033B612B4649EB03037B61A6
:103590004FF000024FF00003D7E9044529464B02E3
:1035A000214643EAD15321464A0210461946D7F82C
:1035B000AC300022BB65FA65D7E91623FDF766FA41
:1035C00002460B461346C7F8B43065E000380240A7
:1035D0000024F40000127A003D4B5B689B09002236
:1035E00018461146C0F308033B6500237B65D7E905
:1035F000148942464B464FF000004FF0000159013C
:1036000041EAD261500102460B464146511AB96067
:10361000494663EB0103FB604FF000024FF00003EB
:10362000D7E902AB59468B01514643EA91635146B3
:103630008A015146541A594663EB01054FF00002C6
:103640004FF00003EB0043EA5473E20014461D46BA
:103650004346E3183B604B4645EB03037B604FF06A
:1036600000024FF00003D7E9004529468B022146AE
:1036700043EA915321468A0210461946D7F8AC30E6
:103680000022BB64FA64D7E91223FDF7FFF9024672
:103690000B461346C7F8B4300D4B5B681B0F03F0A5
:1036A0000703C7F8A430D7F8B420D7F8A430B2FB8A
:1036B000F3F3C7F8B03003E0064BC7F8B03000BFF3
:1036C000D7F8B0301846B837BD46BDE8B08F00BF58
:1036D000003802400024F40080B586B000AF786066
:1036E0007B68002B01D101238DE27B681B6803F00E
:1036F0000103002B00F08380944B9B6803F00C03C4
:10370000042B19D0914B9B6803F00C03082B06D1B6
:103710008E4B5B6803F48003B3F5800F0CD08B4BAA
:103720009B6803F00C030C2B12D1884B5B6803F4ED
:103730008003B3F5800F0BD1844B1B6803F4003377
:10374000002B5BD07B685B68002B57D101235AE2CA
:103750007B685B68B3F5803F06D17C4B1B687B4A76
:1037600043F4803313601DE07B685B68B3F5A02FE2
:103770000CD1764B1B68754A43F480231360734B5E
:103780001B68724A43F4803313600BE06F4B1B6875
:103790006E4A23F4803313606C4B1B686B4A23F42E
:1037A000802313607B685B68002B13D0FEF74AFC14
:1037B000386108E0FEF746FC02463B69D31A642BE9
:1037C00001D903231FE2614B1B6803F40033002B74
:1037D000F0D014E0FEF736FC386108E0FEF732FC6A
:1037E00002463B69D31A642B01D903230BE2574BE2
:1037F0001B6803F40033002BF0D100E000BF7B68AE
:103800001B6803F00203002B6FD0504B9B6803F042
:103810000C03002B17D04D4B9B6803F00C03082BB7
:1038200005D14A4B5B6803F48003002B0BD0474B58
:103830009B6803F00C030C2B1CD1444B5B6803F416
:103840008003002B16D1414B1B6803F00203002BB1
:1038500005D07B68DB68012B01D00123D3E13B4B12
:103860001B6823F0F8027B681B69DB0037491343B0
:103870000B603AE07B68DB68002B20D0344B0122E0
:103880001A60FEF7DFFB386108E0FEF7DBFB02465B
:103890003B69D31A022B01D90323B4E12B4B1B68DC
:1038A00003F00203002BF0D0284B1B6823F0F80232
:1038B0007B681B69DB00254913430B6015E0244B33
:1038C00000221A60FEF7BEFB386108E0FEF7BAFB83
:1038D00002463B69D31A022B01D9032393E11B4B08
:1038E0001B6803F00203002BF0D17B681B6803F018
:1038F0000803002B36D07B685B69002B16D0154B74
:1039000001221A60FEF79EFB386108E0FEF79AFB81
:1039100002463B69D31A022B01D9032373E10B4BF7
:103920005B6F03F00203002BF0D01BE0094B002279
:103930001A60FEF787FB38610EE0FEF783FB024654
:103940003B69D31A022B07D903235CE100380240FC
:1039500000004742800E47428A4B5B6F03F0020330
:10396000002BEAD17B681B6803F00403002B00F0F6
:1039700097800023FB75834B1B6C03F08053002B57
:103980000FD10023BB607F4B1B6C7E4A43F08053FA
:1039900013647C4B1B6C03F08053BB60BB6801233A
:1039A000FB75794B1B6803F48073002B18D1764BA1
:1039B0001B68754A43F480731360FEF743FB38615C
:1039C00008E0FEF73FFB02463B69D31A022B01D900
:1039D000032318E16C4B1B6803F48073002BF0D0B9
:1039E0007B689B68012B06D1664B1B6F654A43F0D1
:1039F000010313671CE07B689B68052B0CD1614BAE
:103A00001B6F604A43F0040313675E4B1B6F5D4AF4
:103A100043F0010313670BE05A4B1B6F594A23F025
:103A200001031367574B1B6F564A23F004031367B8
:103A30007B689B68002B15D0FEF704FB38610AE019
:103A4000FEF700FB02463B69D31A41F288329342EB
:103A500001D90323D7E04B4B1B6F03F00203002B6C
:103A6000EED014E0FEF7EEFA38610AE0FEF7EAFA6B
:103A700002463B69D31A41F28832934201D90323AB
:103A8000C1E0404B1B6F03F00203002BEED1FB7D26
:103A9000012B05D13B4B1B6C3A4A23F08053136436
:103AA0007B689B69002B00F0AD80364B9B6803F070
:103AB0000C03082B60D07B689B69022B45D1334BEC
:103AC00000221A60FEF7BEFA386108E0FEF7BAFA83
:103AD00002463B69D31A022B01D9032393E0294BF9
:103AE0001B6803F00073002BF0D17B68DA697B68F8
:103AF0001B6A1A437B685B6A9B011A437B689B6A5B
:103B00005B08013B1B041A437B68DB6A1B061A43F4
:103B10007B681B6B1B071B4913434B601B4B01222C
:103B20001A60FEF78FFA386108E0FEF78BFA02465A
:103B30003B69D31A022B01D9032364E0114B1B68A4
:103B400003F00073002BF0D05CE0104B00221A60F1
:103B5000FEF778FA386108E0FEF774FA02463B692E
:103B6000D31A022B01D903234DE0064B1B6803F047
:103B70000073002BF0D145E07B689B69012B07D1D6
:103B8000012340E0003802400070004060004742DE
:103B90001F4B5B68FB607B689B69012B30D0FB6827
:103BA00003F480027B68DB699A4229D1FB6803F049
:103BB0003F027B681B6A9A4222D1FA6847F6C073BB
:103BC00013407A68526A9201934219D1FB6803F458
:103BD00040327B689B6A5B08013B1B049A420FD111
:103BE000FB6803F070627B68DB6A1B069A4207D1B0
:103BF000FB6803F0E0427B681B6B1B079A4201D015
:103C0000012300E0002318461837BD4680BD00BFE1
:103C10000038024080B582B000AF78607B68002B2E
:103C200001D1012341E07B6893F83D30DBB2002BEA
:103C300006D17B68002283F83C207868FDF7A6FD5A
:103C40007B68022283F83D207B681A687B68043316
:103C50001946104600F0BAFE7B68012283F8462020
:103C60007B68012283F83E207B68012283F83F2095
:103C70007B68012283F840207B68012283F8412081
:103C80007B68012283F842207B68012283F843206D
:103C90007B68012283F844207B68012283F8452059
:103CA0007B68012283F83D20002318460837BD4673
:103CB00080BD000080B485B000AF78607B6893F869
:103CC0003D30DBB2012B01D001234EE07B680222A4
:103CD00083F83D207B681B68DA687B681B6842F0CC
:103CE0000102DA607B681B68234A934222D07B681A
:103CF0001B68B3F1804F1DD07B681B681F4A93423D
:103D000018D07B681B681E4A934213D07B681B68DF
:103D10001C4A93420ED07B681B681B4A934209D011
:103D20007B681B68194A934204D07B681B68184A59
:103D3000934211D17B681B689B6803F00703FB600B
:103D4000FB68062B10D07B681B681A687B681B68B1
:103D500042F001021A6007E07B681B681A687B6802
:103D60001B6842F001021A60002318461437BD4652
:103D70005DF8047B704700BF000001400004004074
:103D800000080040000C00400004014000400140D9
:103D90000018004080B582B000AF78607B68002BCF
:103DA00001D1012341E07B6893F83D30DBB2002B69
:103DB00006D17B68002283F83C20786800F039F84F
:103DC0007B68022283F83D207B681A687B68043395
:103DD0001946104600F0FAFD7B68012283F8462060
:103DE0007B68012283F83E207B68012283F83F2014
:103DF0007B68012283F840207B68012283F8412000
:103E00007B68012283F842207B68012283F84320EB
:103E10007B68012283F844207B68012283F84520D7
:103E20007B68012283F83D20002318460837BD46F1
:103E300080BD80B483B000AF786000BF0C37BD4652
:103E40005DF8047B7047000080B584B000AF7860F7
:103E500039603B68002B09D17B6893F83E30DBB2B8
:103E6000012B14BF01230023DBB222E03B68042BAB
:103E700009D17B6893F83F30DBB2012B14BF0123DB
:103E80000023DBB215E03B68082B09D17B6893F86F
:103E90004030DBB2012B14BF01230023DBB208E06A
:103EA0007B6893F84130DBB2012B14BF0123002360
:103EB000DBB2002B01D001237CE03B68002B04D156
:103EC0007B68022283F83E2013E03B68042B04D178
:103ED0007B68022283F83F200BE03B68082B04D16B
:103EE0007B68022283F8402003E07B68022283F88B
:103EF00041207B681B6801223968184601F086F969
:103F00007B681B682D4A934204D07B681B682C4A4F
:103F1000934201D1012300E00023002B07D07B68EE
:103F20001B685A6C7B681B6842F400425A647B68C9
:103F30001B68224A934222D07B681B68B3F1804FF2
:103F40001DD07B681B681F4A934218D07B681B6892
:103F50001D4A934213D07B681B681C4A93420ED0C3
:103F60007B681B68164A934209D07B681B68184A15
:103F7000934204D07B681B68164A934211D17B6838
:103F80001B689B6803F00703FB60FB68062B10D0DF
:103F90007B681B681A687B681B6842F001021A6024
:103FA00007E07B681B681A687B681B6842F00102A7
:103FB0001A60002318461037BD4680BD000001403E
:103FC000000401400004004000080040000C0040D4
:103FD000004001400018004080B582B000AF78601A
:103FE0007B68002B01D1012341E07B6893F83D30D1
:103FF000DBB2002B06D17B68002283F83C20786876
:1040000000F039F87B68022283F83D207B681A684B
:104010007B6804331946104600F0D8FC7B68012207
:1040200083F846207B68012283F83E207B680122CA
:1040300083F83F207B68012283F840207B680122BF
:1040400083F841207B68012283F842207B680122AB
:1040500083F843207B68012283F844207B68012297
:1040600083F845207B68012283F83D200023184611
:104070000837BD4680BD80B483B000AF786000BF14
:104080000C37BD465DF8047B7047000080B584B0F6
:1040900000AF786039600023FB733B68002B04D1CC
:1040A0007B6893F83E30DBB213E03B68042B04D10D
:1040B0007B6893F83F30DBB20BE03B68082B04D100
:1040C0007B6893F84030DBB203E07B6893F84130C3
:1040D000DBB2BB733B68002B04D17B6893F84230A2
:1040E000DBB213E03B68042B04D17B6893F84330C8
:1040F000DBB20BE03B68082B04D17B6893F84430BB
:10410000DBB203E07B6893F84530DBB27B73BB7BAB
:10411000012B02D17B7B012B01D00123CCE03B683A
:10412000002B04D17B68022283F83E2013E03B6819
:10413000042B04D17B68022283F83F200BE03B680C
:10414000082B04D17B68022283F8402003E07B68BF
:10415000022283F841203B68002B04D17B680222B5
:1041600083F8422013E03B68042B04D17B680222D1
:1041700083F843200BE03B68082B04D17B680222C4
:1041800083F8442003E07B68022283F845203B68E3
:104190000C2B41D801A252F823F000BFD1410008F6
:1041A000194200081942000819420008E3410008BA
:1041B000194200081942000819420008F541000898
:1041C0001942000819420008194200080742000875
:1041D0007B681B68DA687B681B6842F00202DA6061
:1041E0001DE07B681B68DA687B681B6842F004028C
:1041F000DA6014E07B681B68DA687B681B6842F051
:104200000802DA600BE07B681B68DA687B681B6871
:1042100042F01002DA6002E00123FB7300BFFB7B77
:10422000002B48D17B681B6801223968184600F0D2
:10423000EDFF7B681B68224A934222D07B681B6893
:10424000B3F1804F1DD07B681B681E4A934218D083
:104250007B681B681C4A934213D07B681B681B4A0F
:1042600093420ED07B681B68194A934209D07B6841
:104270001B68184A934204D07B681B68164A934215
:1042800011D17B681B689B6803F00703BB60BB68A8
:10429000062B10D07B681B681A687B681B6842F08D
:1042A00001021A6007E07B681B681A687B681B685C
:1042B00042F001021A60FB7B18461037BD4680BDF4
:1042C000000001400004004000080040000C0040D5
:1042D00000040140004001400018004080B584B057
:1042E00000AF78607B681B68DB68FB607B681B68DD
:1042F0001B69BB60BB6803F00203002B20D0FB6886
:1043000003F00203002B1BD07B681B686FF00202D6
:104310001A617B6801221A777B681B689B6903F02E
:104320000303002B03D07868FCF79CFD05E0786858
:1043300000F02EFB786800F035FB7B6800221A77CE
:10434000BB6803F00403002B20D0FB6803F00403D8
:10435000002B1BD07B681B686FF004021A617B681E
:1043600002221A777B681B689B6903F44073002B59
:1043700003D07868FCF776FD05E0786800F008FB6C
:10438000786800F00FFB7B6800221A77BB6803F0A7
:104390000803002B20D0FB6803F00803002B1BD080
:1043A0007B681B686FF008021A617B6804221A7729
:1043B0007B681B68DB6903F00303002B03D078687C
:1043C000FCF750FD05E0786800F0E2FA786800F04C
:1043D000E9FA7B6800221A77BB6803F01003002B10
:1043E00020D0FB6803F01003002B1BD07B681B68F8
:1043F0006FF010021A617B6808221A777B681B68CD
:10440000DB6903F44073002B03D07868FCF72AFDC6
:1044100005E0786800F0BCFA786800F0C3FA7B68C1
:1044200000221A77BB6803F00103002B0CD0FB6855
:1044300003F00103002B07D07B681B686FF00102BB
:104440001A617868FDF7AEFCBB6803F08003002BAF
:104450000CD0FB6803F08003002B07D07B681B683F
:104460006FF080021A61786800F07CFFBB6803F08F
:104470004003002B0CD0FB6803F04003002B07D057
:104480007B681B686FF040021A61786800F094FA4C
:10449000BB6803F02003002B0CD0FB6803F0200363
:1044A000002B07D07B681B686FF020021A617868C8
:1044B00000F04EFF00BF1037BD4680BD80B586B00E
:1044C00000AFF860B9607A600023FB75FB6893F871
:1044D0003C30012B01D1022388E0FB68012283F8E4
:1044E0003C207B68002B1BD1FB681868BB681968EF
:1044F000BB685A68BB68DB6800F0C4FCFB681B68DB
:104500009A69FB681B6822F00C029A61FB681B68C1
:104510009969BB689A68FB681B680A439A6160E006
:104520007B68042B1CD1FB681868BB681968BB68E2
:104530005A68BB68DB6800F048FDFB681B689A6935
:10454000FB681B6822F440629A61FB681B689969EA
:10455000BB689B681A02FB681B680A439A6140E0CB
:104560007B68082B1BD1FB681868BB681968BB689F
:104570005A68BB68DB6800F095FDFB681B68DA6968
:10458000FB681B6822F00C02DA61FB681B68D969C2
:10459000BB689A68FB681B680A43DA6121E07B68A4
:1045A0000C2B1CD1FB681868BB681968BB685A687B
:1045B000BB68DB6800F0B2FDFB681B68DA69FB686A
:1045C0001B6822F44062DA61FB681B68D969BB682A
:1045D0009B681A02FB681B680A43DA6101E0012349
:1045E000FB75FB68002283F83C20FB7D18461837DA
:1045F000BD4680BD80B586B000AFF860B9607A6016
:104600000023FB75FB6893F83C30012B01D102239A
:10461000AEE0FB68012283F83C207B680C2B00F2A3
:104620009F8001A252F823F05D4600086147000810
:1046300061470008614700089D460008614700087F
:104640006147000861470008DF460008614700082D
:1046500061470008614700081F470008FB681B68A6
:10466000B968184600F05EFAFB681B689A69FB6837
:104670001B6842F008029A61FB681B689A69FB6834
:104680001B6822F004029A61FB681B689969BB6889
:104690001A69FB681B680A439A6164E0FB681B683F
:1046A000B968184600F0AEFAFB681B689A69FB68A7
:1046B0001B6842F400629A61FB681B689A69FB6898
:1046C0001B6822F480629A61FB681B689969BB6869
:1046D0001B691A02FB681B680A439A6143E0FB6886
:1046E0001B68B968184600F003FBFB681B68DA69B1
:1046F000FB681B6842F00802DA61FB681B68DA6934
:10470000FB681B6822F00402DA61FB681B68D96948
:10471000BB681A69FB681B680A43DA6123E0FB681F
:104720001B68B968184600F057FBFB681B68DA691C
:10473000FB681B6842F40062DA61FB681B68DA6997
:10474000FB681B6822F48062DA61FB681B68D96928
:10475000BB681B691A02FB681B680A43DA6102E046
:104760000123FB7500BFFB68002283F83C20FB7D22
:1047700018461837BD4680BD80B584B000AF78605C
:1047800039600023FB737B6893F83C30012B01D127
:104790000223B4E07B68012283F83C207B6802227C
:1047A00083F83D207B681B689B68BB60BB6823F077
:1047B0007703BB60BB6823F47F43BB607B681B68E7
:1047C000BA689A603B681B68B3F5005F3ED0B3F5EA
:1047D000005F00F28780B3F5805F00F08680B3F55C
:1047E000805F7FD8702B1AD0702B7BD8602B50D075
:1047F000602B77D8502B3CD0502B73D8402B58D0FF
:10480000402B6FD8302B64D0302B6BD8202B60D04E
:10481000202B67D8002B5CD0102B5AD062E07B682D
:1048200018683B6899683B685A683B68DB6800F029
:10483000CDFC7B681B689B68BB60BB6843F077035B
:10484000BB607B681B68BA689A604FE07B68186839
:104850003B6899683B685A683B68DB6800F0B6FCC7
:104860007B681B689A687B681B6842F480429A6088
:104870003CE07B6818683B6859683B68DB681A460F
:1048800000F074FB7B681B685021184600F083FC25
:104890002CE07B6818683B6859683B68DB681A46FF
:1048A00000F0D0FB7B681B686021184600F073FCA9
:1048B0001CE07B6818683B6859683B68DB681A46EF
:1048C00000F054FB7B681B684021184600F063FC35
:1048D0000CE07B681A683B681B681946104600F0BC
:1048E0005AFC03E00123FB7300E000BF7B68012258
:1048F00083F83D207B68002283F83C20FB7B184630
:104900001037BD4680BD000080B485B000AF786030
:1049100039600023FB603B680C2B31D801A252F8B0
:1049200023F000BF59490008814900088149000867
:10493000814900086349000881490008814900084D
:10494000814900086D490008814900088149000833
:1049500081490008774900087B681B685B6BFB6036
:104960000FE07B681B689B6BFB600AE07B681B6841
:10497000DB6BFB6005E07B681B681B6CFB6000E089
:1049800000BFFB6818461437BD465DF8047B7047CE
:1049900080B483B000AF786000BF0C37BD465DF8CF
:1049A000047B704780B483B000AF786000BF0C37E1
:1049B000BD465DF8047B704780B483B000AF78607B
:1049C00000BF0C37BD465DF8047B704780B485B0EE
:1049D00000AF786039607B681B68FB607B68464A83
:1049E000934213D07B68B3F1804F0FD07B68434A6A
:1049F00093420BD07B68424A934207D07B68414A7E
:104A0000934203D07B68404A934208D1FB6823F06D
:104A10007003FB603B685B68FA681343FB607B686C
:104A2000354A93422BD07B68B3F1804F27D07B6807
:104A3000324A934223D07B68314A93421FD07B682D
:104A4000304A93421BD07B682F4A934217D07B6831
:104A50002E4A934213D07B682D4A93420FD07B6835
:104A60002C4A93420BD07B682B4A934207D07B6839
:104A70002A4A934203D07B68294A934208D1FB68B3
:104A800023F44073FB603B68DB68FA681343FB6008
:104A9000FB6823F080023B685B691343FB607B6823
:104AA000FA681A603B689A687B68DA623B681A6841
:104AB0007B689A627B68104A934203D07B68124AF3
:104AC000934203D13B681A697B681A637B680122B1
:104AD0005A617B681B6903F00103012B05D17B68D8
:104AE0001B6923F001027B681A6100BF1437BD46C1
:104AF0005DF8047B704700BF0000014000040040E7
:104B000000080040000C004000040140004001404B
:104B1000004401400048014000180040001C0040D3
:104B20000020004080B487B000AF786039607B68B7
:104B30001B6A7B617B681B6A23F001027B681A6237
:104B40007B685B683B617B689B69FB60FB6823F06B
:104B50007003FB60FB6823F00303FB603B681B688A
:104B6000FA681343FB607B6923F002037B613B68B7
:104B70009B687A6913437B617B68204A934203D028
:104B80007B681F4A93420CD17B6923F008037B6149
:104B90003B68DB687A6913437B617B6923F004031C
:104BA0007B617B68154A934203D07B68144A934229
:104BB00011D13B6923F480733B613B6923F400739B
:104BC0003B613B685B693A6913433B613B689B69A6
:104BD0003A6913433B617B683A695A607B68FA68BB
:104BE0009A613B685A687B685A637B687A691A6283
:104BF00000BF1C37BD465DF8047B704700000140D4
:104C00000004014080B487B000AF786039607B68F1
:104C10001B6A7B617B681B6A23F010027B681A6247
:104C20007B685B683B617B689B69FB60FB6823F486
:104C3000E043FB60FB6823F44073FB603B681B6848
:104C40001B02FA681343FB607B6923F020037B613E
:104C50003B689B681B017A6913437B617B68224A2E
:104C6000934203D07B68214A93420DD17B6923F0A4
:104C700080037B613B68DB681B017A6913437B61BE
:104C80007B6923F040037B617B68174A934203D022
:104C90007B68164A934213D13B6923F480633B61DE
:104CA0003B6923F400633B613B685B699B003A69A5
:104CB00013433B613B689B699B003A6913433B612B
:104CC0007B683A695A607B68FA689A613B685A68FF
:104CD0007B689A637B687A691A6200BF1C37BD469D
:104CE0005DF8047B704700BF0000014000040140F4
:104CF00080B487B000AF786039607B681B6A7B61E5
:104D00007B681B6A23F480727B681A627B685B682D
:104D10003B617B68DB69FB60FB6823F07003FB6031
:104D2000FB6823F00303FB603B681B68FA681343CE
:104D3000FB607B6923F400737B613B689B681B020B
:104D40007A6913437B617B68214A934203D07B6875
:104D5000204A93420DD17B6923F400637B613B6859
:104D6000DB681B027A6913437B617B6923F48063F0
:104D70007B617B68164A934203D07B68154A934255
:104D800013D13B6923F480533B613B6923F4005307
:104D90003B613B685B691B013A6913433B613B68BC
:104DA0009B691B013A6913433B617B683A695A600E
:104DB0007B68FA68DA613B685A687B68DA637B680B
:104DC0007A691A6200BF1C37BD465DF8047B7047E4
:104DD000000001400004014080B487B000AF78605B
:104DE00039607B681B6A3B617B681B6A23F48052D5
:104DF0007B681A627B685B687B617B68DB69FB6050
:104E0000FB6823F4E043FB60FB6823F44073FB6022
:104E10003B681B681B02FA681343FB603B6923F481
:104E200000533B613B689B681B033A6913433B613A
:104E30007B68124A934203D07B68114A934209D19E
:104E40007B6923F480437B613B685B699B017A69E2
:104E500013437B617B687A695A607B68FA68DA6120
:104E60003B685A687B681A647B683A691A6200BFBB
:104E70001C37BD465DF8047B704700BF0000014051
:104E80000004014080B487B000AFF860B9607A6078
:104E90003B60FB681B6A3B61FB681B6A23F00102F5
:104EA000FB681A62FB689B697B61FB68284A934236
:104EB0001BD0FB68B3F1804F17D0FB68254A9342A3
:104EC00013D0FB68244A93420FD0FB68234A9342D5
:104ED0000BD0FB68224A934207D0FB68214A9342D9
:104EE00003D0FB68204A934201D1012300E0002354
:104EF000002B08D07B6923F003037B617A697B6810
:104F000013437B6103E07B6943F001037B617B69B1
:104F100023F0F0037B613B681B01DBB27A6913432A
:104F20007B613B6923F00A033B61BB6803F00A0322
:104F30003A6913433B61FB687A699A61FB683A6995
:104F40001A6200BF1C37BD465DF8047B704700BF86
:104F5000000001400004004000080040000C004038
:104F600000040140004001400018004080B487B0B8
:104F700000AFF860B9607A60FB681B6A7B61FB6810
:104F80001B6A23F00102FB681A62FB689B693B61A4
:104F90003B6923F0F0033B617B681B013A691343D3
:104FA0003B617B6923F00A037B617A69BB68134329
:104FB0007B61FB683A699A61FB687A691A6200BF93
:104FC0001C37BD465DF8047B704780B487B000AFE6
:104FD000F860B9607A603B60FB681B6A7B61FB68C4
:104FE0001B6A23F01002FB681A62FB689B693B6135
:104FF0003B6923F440733B617B681B023A691343AE
:105000003B613B6923F470433B613B681B039BB2EC
:105010003A6913433B617B6923F0A0037B61BB6862
:105020001B0103F0A0037A6913437B61FB683A69B3
:105030009A61FB687A691A6200BF1C37BD465DF849
:10504000047B704780B487B000AFF860B9607A60C5
:10505000FB681B6A7B61FB681B6A23F01002FB681C
:105060001A62FB689B693B613B6923F470433B61B7
:105070007B681B033A6913433B617B6923F0A00300
:105080007B61BB681B017A6913437B61FB683A69EA
:105090009A61FB687A691A6200BF1C37BD465DF8E9
:1050A000047B704780B487B000AFF860B9607A6065
:1050B0003B60FB681B6A7B61FB681B6A23F48072A0
:1050C000FB681A62FB68DB693B613B6923F0030301
:1050D0003B613A697B6813433B613B6923F0F00312
:1050E0003B613B681B01DBB23A6913433B617B695F
:1050F00023F420637B61BB681B0203F420637A699D
:1051000013437B61FB683A69DA61FB687A691A626A
:1051100000BF1C37BD465DF8047B704780B487B084
:1051200000AFF860B9607A603B60FB681B6A7B6126
:10513000FB681B6A23F48052FB681A62FB68DB6918
:105140003B613B6923F440733B617B681B023A6916
:1051500013433B613B6923F470433B613B681B0392
:105160009BB23A6913433B617B6923F420437B6123
:10517000BB681B0303F420437A6913437B61FB681C
:105180003A69DA61FB687A691A6200BF1C37BD466A
:105190005DF8047B704780B485B000AF78603960FB
:1051A0007B689B68FB60FB6823F07003FB603A68D8
:1051B000FB68134343F00703FB607B68FA689A605F
:1051C00000BF1437BD465DF8047B704780B487B0DC
:1051D00000AFF860B9607A603B60FB689B687B61F8
:1051E0007B6923F47F437B613B681A027B681A4327
:1051F000BB6813437A6913437B61FB687A699A60E1
:1052000000BF1C37BD465DF8047B704780B487B093
:1052100000AFF860B9607A60BB6803F01F03012239
:1052200002FA03F37B61FB681A6A7B69DB431A406D
:10523000FB681A62FB681A6ABB6803F01F0379688F
:1052400001FA03F31A43FB681A6200BF1C37BD461C
:105250005DF8047B7047000080B485B000AF7860D3
:1052600039607B6893F83C30012B01D102235AE06E
:105270007B68012283F83C207B68022283F83D2072
:105280007B681B685B68FB607B681B689B68BB6016
:10529000FB6823F07003FB603B681B68FA681343EC
:1052A000FB607B681B68FA685A607B681B68214A50
:1052B000934222D07B681B68B3F1804F1DD07B687E
:1052C0001B681D4A934218D07B681B681B4A934297
:1052D00013D07B681B681A4A93420ED07B681B6808
:1052E000184A934209D07B681B68174A934204D03E
:1052F0007B681B68154A93420CD1BB6823F080037E
:10530000BB603B685B68BA681343BB607B681B6823
:10531000BA689A607B68012283F83D207B6800228E
:1053200083F83C20002318461437BD465DF8047B03
:10533000704700BF0000014000040040000800402A
:10534000000C0040000401400040014000180040F3
:1053500080B483B000AF786000BF0C37BD465DF805
:10536000047B704780B483B000AF786000BF0C3717
:10537000BD465DF8047B704780B582B000AF7860B1
:105380007B68002B01D1012342E07B6893F8413018
:10539000DBB2002B06D17B68002283F840207868BE
:1053A000FCF7ECFA7B68242283F841207B681B68B9
:1053B000DA687B681B6822F40052DA60786800F0D3
:1053C000BDFD7B681B681A697B681B6822F49042EC
:1053D0001A617B681B685A697B681B6822F02A0285
:1053E0005A617B681B68DA687B681B6842F400526C
:1053F000DA607B6800225A647B68202283F84120AF
:105400007B68202283F842207B6800225A630023B5
:1054100018460837BD4680BD80B58AB002AFF86037
:10542000B9603B601346FB8000237B61FB6893F807
:105430004130DBB2202B75D1BB68002B02D0FB883A
:10544000002B01D101236EE0FB6800225A64FB6847
:10545000212283F84120FCF7F5FD7861FB68FA888A
:105460009A84FB68FA88DA84FB689B68B3F5805FEE
:1054700008D1FB681B69002B04D10023FB61BB68CA
:10548000BB6103E0BB68FB610023BB612EE03B68AE
:1054900000937B6900228021F86800F01FFB03461F
:1054A000002B05D0FB68202283F8412003233AE03B
:1054B000FB69002B0BD1BB691B881A46FB681B6874
:1054C000C2F308025A60BB690233BB6107E0FB69A3
:1054D0001A78FB681B685A60FB690133FB61FB6843
:1054E000DB8C9BB2013B9AB2FB68DA84FB68DB8CF5
:1054F0009BB2002BCBD13B6800937B6900224021FB
:10550000F86800F0EBFA0346002B05D0FB68202278
:1055100083F84120032306E0FB68202283F8412022
:10552000002300E0022318462037BD4680BD80B529
:1055300084B000AFF860B9601346FB80FB6893F855
:105540004230DBB2202B12D1BB68002B02D0FB888B
:10555000002B01D101230BE0FB6800221A63FB88BA
:105560001A46B968F86800F012FB034600E002230F
:1055700018461037BD4680BD80B5BAB000AF786020
:105580007B681B681B68C7F8E4307B681B68DB68B6
:10559000C7F8E0307B681B685B69C7F8DC30002324
:1055A000C7F8D8300023C7F8D430D7F8E43003F078
:1055B0000F03C7F8D830D7F8D830002B0FD1D7F861
:1055C000E43003F02003002B09D0D7F8E03003F0DB
:1055D0002003002B03D0786800F0F2FB5BE2D7F8E1
:1055E000D830002B00F0DE80D7F8DC3003F0010368
:1055F000002B06D1D7F8E03003F49073002B00F0B5
:10560000D180D7F8E43003F00103002B0BD0D7F89A
:10561000E03003F48073002B05D07B685B6C43F0B3
:1056200001027B685A64D7F8E43003F00403002BCE
:105630000BD0D7F8DC3003F00103002B05D07B68DA
:105640005B6C43F002027B685A64D7F8E43003F0E5
:105650000203002B0BD0D7F8DC3003F00103002B42
:1056600005D07B685B6C43F004027B685A64D7F812
:10567000E43003F00803002B11D0D7F8E03003F03A
:105680002003002B05D1D7F8DC3003F00103002BF9
:1056900005D07B685B6C43F008027B685A647B68CA
:1056A0005B6C002B00F0F281D7F8E43003F02003AC
:1056B000002B08D0D7F8E03003F02003002B02D0F5
:1056C000786800F07DFB7B681B685B6903F0400332
:1056D000402B0CBF01230023DBB2C7F8D4307B681A
:1056E0005B6C03F00803002B03D1D7F8D430002BF8
:1056F0004FD0786800F085FA7B681B685B6903F01F
:105700004003402B41D17B681B681433C7F89C30A1
:10571000D7F89C3053E8003FC7F89830D7F8983056
:1057200023F04003C7F8D0307B681B681433D7F8E8
:10573000D020C7F8A820C7F8A430D7F8A410D7F80D
:10574000A82041E80023C7F8A030D7F8A030002BEC
:10575000D9D17B68DB6B002B13D07B68DB6B7E4A77
:105760001A657B68DB6B1846FDF769FA0346002B68
:1057700016D07B68DB6B1B6D7A68D26B104698473E
:105780000EE0786800F094F90AE0786800F090F98B
:1057900006E0786800F08CF97B6800225A6475E1B5
:1057A00000BF73E17B681B6B012B40F04F81D7F882
:1057B000E43003F01003002B00F04881D7F8E0300C
:1057C00003F01003002B00F041810023BB607B68D5
:1057D0001B681B68BB607B681B685B68BB60BB6841
:1057E0007B681B685B6903F04003402B40F0B68088
:1057F0007B68DB6B1B685B68A7F8BE30B7F8BE3010
:10580000002B00F045817B689B8DB7F8BE209A4243
:1058100080F03E817B68B7F8BE20DA857B68DB6B61
:10582000DB69B3F5807F00F088807B681B680C33F0
:10583000C7F88830D7F8883053E8003FC7F884307D
:10584000D7F8843023F48073C7F8B8307B681B68BE
:105850000C33D7F8B820C7F89420C7F89030D7F8A1
:105860009010D7F8942041E80023C7F88C30D7F87F
:105870008C30002BD9D17B681B6814337B677B6F1E
:1058800053E8003F3B673B6F23F00103C7F8B43098
:105890007B681B681433D7F8B420C7F88020FB67F7
:1058A000F96FD7F8802041E80023BB67BB6F002B5E
:1058B000E1D17B681B6814333B663B6E53E8003FC5
:1058C000FB65FB6D23F04003C7F8B0307B681B68B5
:1058D0001433D7F8B020FA66BB66B96EFA6E41E8A9
:1058E00000237B667B6E002BE3D17B68202283F84C
:1058F00042207B6800221A637B681B680C33FB64C0
:10590000FB6C53E8003FBB64BB6C23F01003C7F88B
:10591000AC307B681B680C33D7F8AC20BA657B656C
:10592000796DBA6D41E800233B653B6D002BE3D1F7
:105930007B68DB6B1846FDF712F97B6802225A631D
:105940007B689A8D7B68DB8D9BB2D31A9BB219461C
:10595000786800F0B7F89BE0C95C00087B689A8D16
:105960007B68DB8D9BB2D31AA7F8CE307B68DB8DCA
:105970009BB2002B00F08E80B7F8CE30002B00F0E9
:1059800089807B681B680C33BB63BB6B53E8003FAB
:105990007B637B6B23F49073C7F8C8307B681B680C
:1059A0000C33D7F8C8207A643B64396C7A6C41E8D0
:1059B0000023FB63FB6B002BE3D17B681B68143374
:1059C0007B627B6A53E8003F3B623B6A23F0010342
:1059D000C7F8C4307B681B681433D7F8C4203A6317
:1059E000FB62F96A3A6B41E80023BB62BB6A002B99
:1059F000E3D17B68202283F842207B6800221A636F
:105A00007B681B680C333B613B6953E8003FFB60DC
:105A1000FB6823F01003C7F8C0307B681B680C33A9
:105A2000D7F8C020FA61BB61B969FA6941E800237F
:105A30007B617B69002BE3D17B6802225A63B7F854
:105A4000CE301946786800F03DF823E0D7F8E4300E
:105A500003F08003002B09D0D7F8E03003F0800377
:105A6000002B03D0786800F043F914E0D7F8E43055
:105A700003F04003002B0ED0D7F8E03003F04003D2
:105A8000002B08D0786800F083F904E000BF02E042
:105A900000BF00E000BFE837BD4680BD80B483B0E2
:105AA00000AF786000BF0C37BD465DF8047B7047DF
:105AB00080B483B000AF786000BF0C37BD465DF89E
:105AC000047B704780B483B000AF78600B467B8066
:105AD00000BF0C37BD465DF8047B704780B586B0CB
