:020000040800F2
:1000000000000220F5080008850800088D08000897
:10001000950800089D080008A508000800000000D9
:10002000000000000000000000000000A1440008E3
:10003000AD08000800000000F1460008C5200008D7
:100040004509000845090008450900084509000858
:100050004509000845090008450900084509000848
:100060004509000845090008450900084509000838
:100070004509000845090008450900084509000828
:100080004509000845090008450900084509000818
:100090004509000845090008450900084509000808
:1000A00045090008450900084509000845090008F8
:1000B00045090008450900084509000845090008E8
:1000C00045090008450900084509000845090008D8
:1000D00045090008450900084509000845090008C8
:1000E00045090008450900084509000845090008B8
:1000F00045090008450900084509000845090008A8
:100100004509000845090008450900084509000897
:100110004509000845090008BD0800084509000810
:100120004509000845090008450900084509000877
:100130004509000800000000000000004509000813
:100140004509000845090008450900084509000857
:100150004509000845090008450900084509000847
:100160004509000845090008450900084509000837
:10017000450900084509000845090008000000007D
:100180000000000045090008000000000000000019
:1001900045090008000000000000000045090008B3
:1001A00000000000000000000000000045090008F9
:1001B00045090008450900084509000845090008E7
:0401C00045090008E5
:1001D00010B5054C237833B9044B13B10448AFF381
:1001E00000800123237010BD60000020000000008B
:1001F000284E000808B5034B1BB103490348AFF371
:10020000008008BD0000000064000020284E0008A7
:1002100053B94AB9002908BF00281CBF4FF0FF316D
:100220004FF0FF3000F06AB9ADF1080C6DE904CE73
:1002300000F006F8DDF804E0DDE9022304B07047C1
:100240002DE9F047089D0C46002B4ED194468C4575
:100250008646B2FA82F262D94AB1C2F120039140D5
:1002600020FA03F30CFA02FC194300FA02FE4FEAEB
:100270001C471FFA8CF6B1FBF7F44FEA1E4307FB4D
:10028000141143EA014304FB06F199420AD91CEB1D
:10029000030304F1FF3080F01281994240F20F8194
:1002A000023C6344591A1FFA8EF3B1FBF7F007FBC7
:1002B000101143EA014300FB06F69E420AD91CEBEB
:1002C000030300F1FF3180F0FC809E4240F2F98090
:1002D000634402389B1B40EA044000211DB1D34017
:1002E0000022C5E90032BDE8F0878B4205D90DB187
:1002F000C5E9000100210846F5E7B3FA83F10029BA
:1003000046D1A34202D39042C0F0F080861A64EB3B
:1003100003030120002DE6D0C5E90063E3E7002ACE
:1003200040F09080A1EB0C044FEA1C481FFA8CF7B8
:100330000121B4FBF8F64FEA1E4308FB164443EADA
:10034000044307FB06F0984208D91CEB030306F1AF
:10035000FF3402D2984200F2CD8026461C1A1FFAC2
:100360008EF3B4FBF8F008FB104443EA044300FBAF
:1003700007F79F4208D91CEB030300F1FF3402D2B8
:100380009F4200F2B0802046DB1B40EA0640A5E712
:10039000C1F120068B4022FA06F71F4320FA06FC23
:1003A00004FA01F343EA0C03F44000FA01F8380CB4
:1003B0004FEA1349B4FBF0FE1FFA87FC00FB1E4412
:1003C00049EA04440EFB0CF9A14502FA01F20AD9EC
:1003D0003C190EF1FF3A80F08480A14540F2818003
:1003E000AEF1020E3C44A4EB09041FFA83F9B4FBFE
:1003F000F0F300FB134449EA044403FB0CFCA4455E
:1004000007D93C1903F1FF3067D2A44565D9023BF7
:100410003C4443EA0E40A0FB0293A4EB0C049C4234
:10042000CE469C4651D34ED055B1B8EB0E0364EB8B
:100430000C0404FA06F6CB401E43CC40C5E9006428
:10044000002150E7C2F1200320FA03F10CFA02FC6C
:1004500024FA03F394400C434FEA1C4800FA02FECE
:100460001FFA8CF7B3FBF8F008FB1031230C43EABA
:10047000014300FB07F1994208D91CEB030300F18B
:10048000FF362CD299422AD9023863445B1AA4B2AF
:10049000B3FBF8F108FB113344EA034401FB07F313
:1004A000A34208D91CEB040401F1FF3613D2A34286
:1004B00011D902396444E41A41EA004139E704469B
:1004C000F0E6084606E7C845AED2B9EB020E63EB8C
:1004D000070C0138A8E73146EDE7034699E73046B7
:1004E000D4E7D6467FE7634402384DE70646234605
:1004F00008460FE7023E634430E700BF704700BF85
:1005000080B500AF00F020FA00F024F800F082F887
:1005100001F0F2FD094A0021094801F037FE0346C7
:10052000084A1360084A0021084801F02FFE0346DC
:10053000074A136001F004FE00BFFDE7704E00089B
:10054000D50600087C000020944E0008E50600084F
:100550008000002080B594B000AF07F11C03342266
:100560000021184604F078FB07F1080300221A6006
:100570005A609A60DA601A6100237B60234B1B6C1F
:10058000224A43F080531364204B1B6C03F08053CA
:100590007B607B6800233B601D4B1B6823F440435A
:1005A0001B4A43F480431360194B1B6803F4404318
:1005B0003B603B680223FB610123BB621023FB62AB
:1005C00000237B6307F11C03184601F011F8034672
:1005D000002B01D000F0A8F80F23BB600023FB60C4
:1005E00000233B6100237B610023BB6107F108030B
:1005F0000021184600F094FC0346002B01D000F0C7
:1006000093F800BF5037BD4680BD00BF00380240A0
:100610000070004080B588B000AF07F10C030022E5
:100620001A605A609A60DA601A610023BB60264B38
:100630001B6B254A43F080031363234B1B6B03F0B2
:100640008003BB60BB6800237B601F4B1B6B1E4A93
:1006500043F0010313631C4B1B6B03F001037B602E
:100660007B6800233B60184B1B6B174A43F0020367
:100670001363154B1B6B03F002033B603B680022C6
:100680002021124800F018FC2023FB6001233B616D
:1006900000237B610023BB6107F10C0319460B4863
:1006A00000F076FA4FF40053FB6000233B61002317
:1006B0007B6107F10C031946054800F069FA00BF99
:1006C0002037BD4680BD00BF003802400000024018
:1006D0000004024080B582B000AF7860012001F0D4
:1006E000E7FDFBE780B582B000AF786020210448C9
:1006F00000F0FBFB4FF4FA7001F0DAFD00BFF5E704
:100700000000024080B582B000AF78607B681B6853
:10071000044A934201D100F039F900BF0837BD46C1
:1007200080BD00BF0010004080B400AF72B600BFB3
:1007300000BFFDE780B582B000AF00237B60124BA5
:100740005B6C114A43F4804353640F4B5B6C03F4BE
:1007500080437B607B6800233B600B4B1B6C0A4A29
:1007600043F080531364084B1B6C03F080533B60D1
:100770003B6800220F216FF0010000F0DFF900BF9D
:100780000837BD4680BD00BF0038024080B58EB03E
:1007900000AF78600023FB620023BB620023FB6094
:1007A000334B1B6C324A43F010031364304B1B6C09
:1007B00003F01003FB60FB6807F1100207F114035C
:1007C0001146184600F0B2FC3B6AFB62FB6A002B44
:1007D00003D100F097FC786304E000F093FC03463B
:1007E0005B007B637B6B234AA2FB03239B0C013BD7
:1007F000BB62214B214A1A601F4B40F2E732DA609C
:100800001D4ABB6A53601C4B00221A611A4B00221E
:100810009A60194B00229A61174801F087F9034644
:1008200087F8333097F83330002B1BD1124801F092
:10083000D7F9034687F8333097F83330002B11D1BE
:10084000362000F097F97B680F2B08D800227968D2
:10085000362000F073F90A4A7B68136002E0012336
:1008600087F8333097F8333018463837BD4680BDA7
:100870000038024083DE1B4384000020001000404B
:100880000400002080B400AF00BFFDE780B400AFDB
:1008900000BFFDE780B400AF00BFFDE780B400AF4C
:1008A00000BFFDE780B400AF00BFFDE780B400AF3C
:1008B00000BFBD465DF8047B7047000080B500AF07
:1008C000024801F0FDF900BF80BD00BF8400002098
:1008D00080B400AF064BD3F88830054A43F4700368
:1008E000C2F8883000BFBD465DF8047B704700BF8A
:1008F00000ED00E0DFF834D0FFF7EAFF0C480D49C7
:100900000D4A002302E0D458C4500433C4188C426A
:10091000F9D30A4A0A4C002301E013600432A242D0
:10092000FBD304F0F7F9FFF7EBFD7047000002205E
:100930000000002060000020E04E00086000002061
:10094000F84B0020FEE7000080B500AF0E4B1B689F
:100950000D4A43F4007313600B4B1B680A4A43F4BF
:1009600080631360084B1B68074A43F4807313606D
:10097000032000F0D8F80F20FFF708FFFFF7DAFE9A
:100980000023184680BD00BF003C024080B400AF89
:10099000064B1B781A46064B1B681344044A136027
:1009A00000BFBD465DF8047B704700BF0800002013
:1009B000CC00002080B400AF034B1B681846BD4636
:1009C0005DF8047B704700BFCC00002080B485B088
:1009D00000AF78607B6803F00703FB600C4BDB68BB
:1009E000BB60BA684FF6FF031340BB60FB681A0296
:1009F000BB68134343F0BF6343F40033BB60044A56
:100A0000BB68D36000BF1437BD465DF8047B7047F8
:100A100000ED00E080B400AF044BDB681B0A03F07C
:100A200007031846BD465DF8047B704700ED00E003
:100A300080B483B000AF0346FB7197F90730002BF9
:100A40000BDBFB7903F01F02074997F907305B09BD
:100A5000012000FA02F241F8232000BF0C37BD4606
:100A60005DF8047B704700BF00E100E080B483B014
:100A700000AF03463960FB7197F90730002B0ADBA2
:100A80003B68DAB20C4997F907301201D2B20B4435
:100A900083F800230AE03B68DAB20849FB7903F0E7
:100AA0000F03043B1201D2B20B441A7600BF0C377D
:100AB000BD465DF8047B704700E100E000ED00E01A
:100AC00080B489B000AFF860B9607A60FB6803F069
:100AD0000703FB61FB69C3F10703042B28BF042351
:100AE000BB61FB690433062B02D9FB69033B00E0C1
:100AF00000237B614FF0FF32BB6902FA03F3DA4354
:100B0000BB681A407B699A404FF0FF317B6901FA5C
:100B100003F3D9437B680B40134318462437BD4683
:100B20005DF8047B704780B582B000AF786078686C
:100B3000FFF74CFF00BF0837BD4680BD80B586B0CB
:100B400000AF0346B9607A60FB7300237B61FFF757
:100B500061FF78617A68B9687869FFF7B1FF02468A
:100B600097F90F3011461846FFF780FF00BF18377E
:100B7000BD4680BD80B582B000AF0346FB7197F9DA
:100B800007301846FFF754FF00BF0837BD4680BD49
:100B900080B489B000AF7860396000237B610023A6
:100BA0003B610023BB610023FB6165E10122FB691E
:100BB00002FA03F37B613B681B687A6913403B616F
:100BC0003A697B699A4240F054813B685B6803F064
:100BD0000303012B05D03B685B6803F00303022B82
:100BE00030D17B689B68BB61FB695B00032202FA22
:100BF00003F3DB43BA691340BB613B68DA68FB6906
:100C00005B0002FA03F3BA691343BB617B68BA69FC
:100C10009A607B685B68BB610122FB6902FA03F39F
:100C2000DB43BA691340BB613B685B681B0903F097
:100C30000102FB6902FA03F3BA691343BB617B68E3
:100C4000BA695A603B685B6803F00303032B17D053
:100C50007B68DB68BB61FB695B00032202FA03F37C
:100C6000DB43BA691340BB613B689A68FB695B0070
:100C700002FA03F3BA691343BB617B68BA69DA60AD
:100C80003B685B6803F00303022B23D1FB69DA089E
:100C90007B68083253F82230BB61FB6903F007031D
:100CA0009B000F2202FA03F3DB43BA691340BB61D6
:100CB0003B681A69FB6903F007039B0002FA03F320
:100CC000BA691343BB61FB69DA087B680832B9690A
:100CD00043F822107B681B68BB61FB695B00032241
:100CE00002FA03F3DB43BA691340BB613B685B68FC
:100CF00003F00302FB695B0002FA03F3BA691343D2
:100D0000BB617B68BA691A603B685B6803F4403377
:100D1000002B00F0AE800023FB605D4B5B6C5C4AF7
:100D200043F4804353645A4B5B6C03F48043FB6091
:100D3000FB68584AFB699B08023352F82330BB61B9
:100D4000FB6903F003039B000F2202FA03F3DB436A
:100D5000BA691340BB617B684F4A934225D07B68D8
:100D60004E4A93421FD07B684D4A934219D07B680C
:100D70004C4A934213D07B684B4A93420DD07B6818
:100D80004A4A934207D07B68494A934201D10623DD
:100D90000CE007230AE0052308E0042306E0032310
:100DA00004E0022302E0012300E00023FA6902F0DC
:100DB000030292009340BA691343BB613549FB6952
:100DC0009B080233BA6941F823203A4B9B68BB6108
:100DD0003B69DB43BA691340BB613B685B6803F462
:100DE0008013002B03D0BA693B691343BB61314ABE
:100DF000BB6993602F4BDB68BB613B69DB43BA691E
:100E00001340BB613B685B6803F40013002B03D005
:100E1000BA693B691343BB61264ABB69D360254B62
:100E20005B68BB613B69DB43BA691340BB613B68EC
:100E30005B6803F40033002B03D0BA693B691343AA
:100E4000BB611C4ABB6953601A4B1B68BB613B69A1
:100E5000DB43BA691340BB613B685B6803F48033D2
:100E6000002B03D0BA693B691343BB61114ABB69CC
:100E70001360FB690133FB61FB690F2B7FF696AEB4
:100E800000BF00BF2437BD465DF8047B704700BF3C
:100E900000380240003801400000024000040240D7
:100EA00000080240000C0240001002400014024002
:100EB00000180240003C014080B483B000AF78606D
:100EC0000B467B8013467B707B78002B03D07A889F
:100ED0007B689A6103E07B881A047B689A6100BF93
:100EE0000C37BD465DF8047B704780B485B000AF19
:100EF00078600B467B807B685B69FB607A88FB6867
:100F000013401A04FB68D9437B880B401A437B6863
:100F10009A6100BF1437BD465DF8047B704700003E
:100F200080B584B000AF786039607B68002B01D158
:100F30000123CCE0684B1B6803F00F033A689A4228
:100F40000CD9654B3A68D2B21A70634B1B6803F038
:100F50000F033A689A4201D00123B8E07B681B680E
:100F600003F00203002B20D07B681B6803F004030E
:100F7000002B05D0594B9B68584A43F4E0539360CB
:100F80007B681B6803F00803002B05D0534B9B685C
:100F9000524A43F460439360504B9B6823F0F00245
:100FA0007B689B684D4913438B607B681B6803F02B
:100FB0000103002B44D07B685B68012B07D1474BB2
:100FC0001B6803F40033002B19D101237FE07B68F9
:100FD0005B68022B03D07B685B68032B07D13F4B18
:100FE0001B6803F00073002B09D101236FE03B4B1A
:100FF0001B6803F00203002B01D1012367E0374B8C
:101000009B6823F003027B685B68344913438B6061
:10101000FFF7D0FCF8600AE0FFF7CCFC0246FB6863
:10102000D31A41F28832934201D903234FE02B4B6C
:101030009B6803F00C027B685B689B009A42EBD1D3
:10104000254B1B6803F00F033A689A420CD2224BDF
:101050003A68D2B21A70204B1B6803F00F033A684B
:101060009A4201D0012332E07B681B6803F004033D
:10107000002B08D0194B9B6823F4E0527B68DB6897
:10108000164913438B607B681B6803F00803002B31
:1010900009D0124B9B6823F460427B681B69DB001C
:1010A0000E4913438B6000F073F802460B4B9B68AC
:1010B0001B0903F00F030A49CB5C22FA03F3094A28
:1010C0001360094B1B681846FFF760FB00231846A6
:1010D0001037BD4680BD00BF003C024000380240D2
:1010E000B84E0008000000200400002080B400AFCB
:1010F000034B1B681846BD465DF8047B704700BF74
:101100000000002080B500AFFFF7F0FF0246054B5E
:101110009B689B0A03F007030349CB5C22FA03F3A5
:10112000184680BD00380240C84E000880B483B025
:1011300000AF786039607B680F221A60124B9B68A1
:1011400003F003027B685A600F4B9B6803F0F002C8
:101150007B689A600C4B9B6803F4E0527B68DA6012
:10116000094B9B68DB0803F4E0527B681A61074B6C
:101170001B6803F00F023B681A6000BF0C37BD46C6
:101180005DF8047B704700BF00380240003C02401D
:101190002DE9B04FAEB000AF0023C7F8AC3000234C
:1011A000C7F8B4300023C7F8A8300023C7F8A4302C
:1011B0000023C7F8B030CB4B9B6803F00C030C2B1B
:1011C00000F2068201A252F823F000BF01120008CB
:1011D000D1150008D1150008D11500080912000822
:1011E000D1150008D1150008D1150008111200080A
:1011F000D1150008D1150008D11500080114000808
:10120000B94BC7F8B030E7E1B84BC7F8B030E3E10D
:10121000B44B5B6803F03F03C7F8AC30B14B5B687D
:1012200003F48003002B71D0AE4B5B689B09002256
:10123000C7F89830C7F89C20D7F89830C3F3080354
:10124000C7F890300023C7F89430D7E924452246E8
:101250002B464FF000004FF00001590141EAD261E6
:10126000500102460B462146511A3964294663EB68
:1012700001037B644FF000024FF00003D7E91089AF
:1012800049468B01414643EA916341468A01414602
:10129000511AB963494663EB0103FB634FF0000247
:1012A0004FF00003D7E90E894946CB00414643EA97
:1012B00051734146CA0010461946034622469B1800
:1012C0003B632B460A4642EB03037B634FF000026D
:1012D0004FF00003D7E90C4529464B02214643EA6B
:1012E000D15321464A0210461946D7F8AC300022A5
:1012F000C7F88830C7F88C20D7E92223FEF788FF8B
:1013000002460B461346C7F8B43067E0754B5B687E
:101310009B090022C7F88030C7F88420D7F88030B6
:10132000C3F30803BB670023FB67D7E91E452246CA
:101330002B464FF000004FF00001590141EAD26105
:10134000500102460B462146511AB962294663EB09
:101350000103FB624FF000024FF00003D7E90A8956
:1013600049468B01414643EA916341468A01414621
:10137000B2EB010A494663EB010B4FF000024FF05C
:1013800000034FEACB0343EA5A734FEACA0292467C
:101390009B4623461AEB03033B622B464BEB0303AE
:1013A0007B624FF000024FF00003D7E90845294661
:1013B0008B02214643EA915321468A021046194680
:1013C000D7F8AC3000223B677A67D7E91C23FEF7D9
:1013D0001FFF02460B461346C7F8B430414B5B680B
:1013E0001B0C03F0030301335B00C7F8A830D7F8E8
:1013F000B420D7F8A830B2FBF3F3C7F8B030EBE075
:10140000384B5B6803F03F03C7F8AC30354B5B6883
:1014100003F48003002B6BD0324B5B689B090022E6
:10142000BB66FA66BB6EC3F308033B6600237B66AC
:10143000D7E9184522462B464FF000004FF0000137
:10144000590141EAD261500102460B462146511A28
:10145000B961294663EB0103FB614FF000024FF0D5
:101460000003D7E906AB59468B01514643EA916325
:1014700051468A015146B2EB0108594663EB010916
:101480004FF000024FF000034FEAC90343EA5873DC
:101490004FEAC80290469946234618EB03033B6186
:1014A0002B4649EB03037B614FF000024FF0000332
:1014B000D7E9044529464B02214643EAD153214648
:1014C0004A0210461946D7F8AC300022BB65FA65CF
:1014D000D7E91623FEF79CFE02460B461346C7F8D3
:1014E000B43065E0003802400024F40000127A00B5
:1014F0003D4B5B689B09002218461146C0F3080368
:101500003B6500237B65D7E9148942464B464FF083
:1015100000004FF00001590141EAD261500102463A
:101520000B464146511AB960494663EB0103FB6023
:101530004FF000024FF00003D7E902AB59468B0190
:10154000514643EA916351468A015146541A59461D
:1015500063EB01054FF000024FF00003EB0043EA9C
:101560005473E20014461D464346E3183B604B4665
:1015700045EB03037B604FF000024FF00003D7E917
:10158000004529468B02214643EA915321468A02AF
:1015900010461946D7F8AC300022BB64FA64D7E98C
:1015A0001223FEF735FE02460B461346C7F8B43049
:1015B0000D4B5B681B0F03F00703C7F8A430D7F887
:1015C000B420D7F8A430B2FBF3F3C7F8B03003E08F
:1015D000064BC7F8B03000BFD7F8B0301846B83760
:1015E000BD46BDE8B08F00BF003802400024F400C3
:1015F00080B586B000AF78607B68002B01D10123F5
:101600008DE27B681B6803F00103002B00F08380F0
:10161000944B9B6803F00C03042B19D0914B9B68EF
:1016200003F00C03082B06D18E4B5B6803F4800398
:10163000B3F5800F0CD08B4B9B6803F00C030C2B85
:1016400012D1884B5B6803F48003B3F5800F0BD194
:10165000844B1B6803F40033002B5BD07B685B6812
:10166000002B57D101235AE27B685B68B3F5803FBA
:1016700006D17C4B1B687B4A43F4803313601DE02A
:101680007B685B68B3F5A02F0CD1764B1B68754A5D
:1016900043F480231360734B1B68724A43F4803316
:1016A00013600BE06F4B1B686E4A23F480331360AA
:1016B0006C4B1B686B4A23F4802313607B685B6868
:1016C000002B13D0FFF776F9386108E0FFF772F9C5
:1016D00002463B69D31A642B01D903231FE2614BF5
:1016E0001B6803F40033002BF0D014E0FFF762F91D
:1016F000386108E0FFF75EF902463B69D31A642BB4
:1017000001D903230BE2574B1B6803F40033002B72
:10171000F0D100E000BF7B681B6803F00203002BE0
:101720006FD0504B9B6803F00C03002B17D04D4B30
:101730009B6803F00C03082B05D14A4B5B6803F44C
:101740008003002B0BD0474B9B6803F00C030C2B42
:101750001CD1444B5B6803F48003002B16D1414B32
:101760001B6803F00203002B05D07B68DB68012BAC
:1017700001D00123D3E13B4B1B6823F0F8027B68C7
:101780001B69DB00374913430B603AE07B68DB6879
:10179000002B20D0344B01221A60FFF70BF938617F
:1017A00008E0FFF707F902463B69D31A022B01D97B
:1017B0000323B4E12B4B1B6803F00203002BF0D092
:1017C000284B1B6823F0F8027B681B69DB00254966
:1017D00013430B6015E0244B00221A60FFF7EAF870
:1017E000386108E0FFF7E6F802463B69D31A022B9E
:1017F00001D9032393E11B4B1B6803F00203002B69
:10180000F0D17B681B6803F00803002B36D07B689F
:101810005B69002B16D0154B01221A60FFF7CAF83E
:10182000386108E0FFF7C6F802463B69D31A022B7D
:1018300001D9032373E10B4B5B6F03F00203002B11
:10184000F0D01BE0094B00221A60FFF7B3F83861B3
:101850000EE0FFF7AFF802463B69D31A022B07D917
:1018600003235CE10038024000004742800E4742FB
:101870008A4B5B6F03F00203002BEAD17B681B6885
:1018800003F00403002B00F097800023FB75834BCB
:101890001B6C03F08053002B0FD10023BB607F4BE8
:1018A0001B6C7E4A43F0805313647C4B1B6C03F02B
:1018B0008053BB60BB680123FB75794B1B6803F445
:1018C0008073002B18D1764B1B68754A43F48073E4
:1018D0001360FFF76FF8386108E0FFF76BF8024616
:1018E0003B69D31A022B01D9032318E16C4B1B6807
:1018F00003F48073002BF0D07B689B68012B06D12A
:10190000664B1B6F654A43F0010313671CE07B685D
:101910009B68052B0CD1614B1B6F604A43F004039D
:1019200013675E4B1B6F5D4A43F0010313670BE0C7
:101930005A4B1B6F594A23F001031367574B1B6F18
:10194000564A23F0040313677B689B68002B15D06D
:10195000FFF730F838610AE0FFF72CF802463B69E0
:10196000D31A41F28832934201D90323D7E04B4B7B
:101970001B6F03F00203002BEED014E0FFF71AF800
:1019800038610AE0FFF716F802463B69D31A41F2C4
:101990008832934201D90323C1E0404B1B6F03F00F
:1019A0000203002BEED1FB7D012B05D13B4B1B6CC1
:1019B0003A4A23F0805313647B689B69002B00F044
:1019C000AD80364B9B6803F00C03082B60D07B681E
:1019D0009B69022B45D1334B00221A60FEF7EAFFC8
:1019E000386108E0FEF7E6FF02463B69D31A022B96
:1019F00001D9032393E0294B1B6803F00073002BEC
:101A0000F0D17B68DA697B681B6A1A437B685B6A82
:101A10009B011A437B689B6A5B08013B1B041A43CA
:101A20007B68DB6A1B061A437B681B6B1B071B4921
:101A300013434B601B4B01221A60FEF7BBFF38615A
:101A400008E0FEF7B7FF02463B69D31A022B01D923
:101A5000032364E0114B1B6803F00073002BF0D0EC
:101A60005CE0104B00221A60FEF7A4FF386108E02A
:101A7000FEF7A0FF02463B69D31A022B01D90323CC
:101A80004DE0064B1B6803F00073002BF0D145E0DE
:101A90007B689B69012B07D1012340E0003802409D
:101AA00000700040600047421F4B5B68FB607B6832
:101AB0009B69012B30D0FB6803F480027B68DB69F3
:101AC0009A4229D1FB6803F03F027B681B6A9A4265
:101AD00022D1FA6847F6C07313407A68526A9201BD
:101AE000934219D1FB6803F440327B689B6A5B0820
:101AF000013B1B049A420FD1FB6803F070627B68C4
:101B0000DB6A1B069A4207D1FB6803F0E0427B6860
:101B10001B6B1B079A4201D0012300E000231846EB
:101B20001837BD4680BD00BF0038024080B582B086
:101B300000AF78607B68002B01D1012341E07B6816
:101B400093F83D30DBB2002B06D17B68002283F88E
:101B50003C20786800F039F87B68022283F83D2049
:101B60007B681A687B6804331946104600F0C0F998
:101B70007B68012283F846207B68012283F83E209F
:101B80007B68012283F83F207B68012283F8402094
:101B90007B68012283F841207B68012283F8422080
:101BA0007B68012283F843207B68012283F844206C
:101BB0007B68012283F845207B68012283F83D2061
:101BC000002318460837BD4680BD80B483B000AFFF
:101BD000786000BF0C37BD465DF8047B704700009D
:101BE00080B485B000AF78607B6893F83D30DBB29D
:101BF000012B01D001234EE07B68022283F83D20B7
:101C00007B681B68DA687B681B6842F00102DA6057
:101C10007B681B68234A934222D07B681B68B3F120
:101C2000804F1DD07B681B681F4A934218D07B6889
:101C30001B681E4A934213D07B681B681C4A934260
:101C40000ED07B681B681B4A934209D07B681B68D7
:101C5000194A934204D07B681B68184A934211D1F9
:101C60007B681B689B6803F00703FB60FB68062B1F
:101C700010D07B681B681A687B681B6842F0010201
:101C80001A6007E07B681B681A687B681B6842F073
:101C900001021A60002318461437BD465DF8047B24
:101CA000704700BF000001400004004000080040F1
:101CB000000C0040000401400040014000180040BA
:101CC00080B584B000AF78607B681B68DB68FB6020
:101CD0007B681B681B69BB60BB6803F00203002BB9
:101CE00020D0FB6803F00203002B1BD07B681B682D
:101CF0006FF002021A617B6801221A777B681B6809
:101D00009B6903F00303002B03D0786800F0D2F83E
:101D100005E0786800F0C4F8786800F0D5F87B68D2
:101D200000221A77BB6803F00403002B20D0FB6865
:101D300003F00403002B1BD07B681B686FF00402C8
:101D40001A617B6802221A777B681B689B6903F41F
:101D50004073002B03D0786800F0ACF805E0786899
:101D600000F09EF8786800F0AFF87B6800221A77E0
:101D7000BB6803F00803002B20D0FB6803F00803C6
:101D8000002B1BD07B681B686FF008021A617B6810
:101D900004221A777B681B68DB6903F00303002BBE
:101DA00003D0786800F086F805E0786800F078F8ED
:101DB000786800F089F87B6800221A77BB6803F026
:101DC0001003002B20D0FB6803F01003002B1BD066
:101DD0007B681B686FF010021A617B6808221A7713
:101DE0007B681B68DB6903F44073002B03D07868C1
:101DF00000F060F805E0786800F052F8786800F0CC
:101E000063F87B6800221A77BB6803F00103002B9C
:101E10000CD0FB6803F00103002B07D07B681B6824
:101E20006FF001021A617868FEF76CFCBB6803F082
:101E30008003002B0CD0FB6803F08003002B07D03D
:101E40007B681B686FF080021A61786800F006F901
:101E5000BB6803F04003002B0CD0FB6803F0400389
:101E6000002B07D07B681B686FF040021A6178680E
:101E700000F034F8BB6803F02003002B0CD0FB68A3
:101E800003F02003002B07D07B681B686FF0200253
:101E90001A61786800F0D8F800BF1037BD4680BDE1
:101EA00080B483B000AF786000BF0C37BD465DF8EA
:101EB000047B704780B483B000AF786000BF0C37FC
:101EC000BD465DF8047B704780B483B000AF786096
:101ED00000BF0C37BD465DF8047B704780B483B00B
:101EE00000AF786000BF0C37BD465DF8047B7047DB
:101EF00080B485B000AF786039607B681B68FB6098
:101F00007B68464A934213D07B68B3F1804F0FD071
:101F10007B68434A93420BD07B68424A934207D086
:101F20007B68414A934203D07B68404A934208D180
:101F3000FB6823F07003FB603B685B68FA6813433F
:101F4000FB607B68354A93422BD07B68B3F1804FAE
:101F500027D07B68324A934223D07B68314A934230
:101F60001FD07B68304A93421BD07B682F4A934234
:101F700017D07B682E4A934213D07B682D4A934238
:101F80000FD07B682C4A93420BD07B682B4A93423C
:101F900007D07B682A4A934203D07B68294A934240
:101FA00008D1FB6823F44073FB603B68DB68FA6888
:101FB0001343FB60FB6823F080023B685B691343BB
:101FC000FB607B68FA681A603B689A687B68DA6233
:101FD0003B681A687B689A627B68104A934203D018
:101FE0007B68124A934203D13B681A697B681A6383
:101FF0007B6801225A617B681B6903F00103012B96
:1020000005D17B681B6923F001027B681A6100BF60
:102010001437BD465DF8047B704700BF00000140E7
:102020000004004000080040000C00400004014093
:1020300000400140004401400048014000180040B9
:10204000001C00400020004080B483B000AF7860E6
:1020500000BF0C37BD465DF8047B704780B483B089
:1020600000AF786000BF0C37BD465DF8047B704759
:1020700080B483B000AF03463960FB7197F9073035
:10208000002B0ADB3B68DAB20C4997F907301201E2
:10209000D2B20B4483F800230AE03B68DAB2084965
:1020A000FB7903F00F03043B1201D2B20B441A7602
:1020B00000BF0C37BD465DF8047B704700E100E0CF
:1020C00000ED00E080B500AF054B1B6801F046FD58
:1020D0000346012B01D002F03FFB00BF80BD00BFD3
:1020E00010E000E080B500AF00216FF00400FFF7C2
:1020F000BFFF00BF80BD000080B483B000AFEFF32E
:1021000005833B603B68002B03D06FF005037B60C9
:102110000CE00A4B1B68002B05D1084B01221A600A
:1021200000237B6002E04FF0FF337B607B68184642
:102130000C37BD465DF8047B704700BFD00000201F
:1021400080B582B000AFEFF305833B603B68002BA6
:1021500003D06FF005037B6010E00B4B1B68012B75
:1021600009D1FFF7BFFF084B02221A6001F092F875
:1021700000237B6002E04FF0FF337B607B681846F2
:102180000837BD4680BD00BFD000002080B58EB0AE
:1021900004AFF860B9607A6000233B61EFF3058318
:1021A0007B617B69002B7ED1FB68002B7BD0802379
:1021B0003B621823FB6100237B624FF0FF33BB615E
:1021C0007B68002B45D07B681B68002B02D07B68A6
:1021D0001B687B627B689B69002B02D07B689B69D4
:1021E000FB61FB69002B08D0FB69382B05D87B68A5
:1021F0005B6803F00103002B01D0002354E07B68EF
:102200005B69002B03D07B685B699B083B627B6842
:102210009B68002B0ED07B68DB68A72B0AD97B68F4
:102220001B69002B06D07B685B69002B02D0012361
:10223000BB6110E07B689B68002B0CD17B68DB687E
:10224000002B08D17B681B69002B04D10023BB61E4
:1022500001E00023BB61BB69012B10D17B681B69C6
:102260007A68926802920193FB690093BB683A6AAC
:10227000796AF86800F01AFE03463B6113E0BB6917
:10228000002B10D13B6A9AB207F110030193FB694E
:102290000093BB68796AF86800F068FE0346012B7A
:1022A00001D000233B613B6918462837BD4680BDFD
:1022B00080B584B000AF7860EFF30583BB60BB6886
:1022C000002B03D06FF00503FB6007E00023FB60E9
:1022D0007B68002B02D0786800F0A6FFFB681846E8
:1022E0001037BD4680BD000080B485B000AFF860F7
:1022F000B9607A60FB68074A1A60BB68064A1A60D0
:102300007B6880221A6000BF1437BD465DF8047BED
:10231000704700BFD40000207C01002080B485B04D
:1023200000AFF860B9607A60FB68074A1A60BB6862
:10233000064A1A607B684FF480721A6000BF143737
:10234000BD465DF8047B70477C0300202404002018
:1023500080B483B000AF78607B6803F108027B68CB
:102360005A607B684FF0FF329A607B6803F1080285
:102370007B68DA607B6803F108027B681A617B681E
:1023800000221A6000BF0C37BD465DF8047B704721
:1023900080B483B000AF78607B6800221A6100BF10
:1023A0000C37BD465DF8047B704780B485B000AF44
:1023B000786039607B685B68FB603B68FA685A60EC
:1023C000FB689A683B689A60FB689B683A685A6049
:1023D000FB683A689A603B687A681A617B681B6898
:1023E0005A1C7B681A6000BF1437BD465DF8047B39
:1023F000704780B485B000AF786039603B681B6877
:10240000BB60BB68B3F1FF3F03D17B681B69FB6016
:102410000CE07B680833FB6002E0FB685B68FB60F4
:10242000FB685B681B68BA689A42F6D2FB685A6818
:102430003B685A603B685B683A689A603B68FA6838
:102440009A60FB683A685A603B687A681A617B68F0
:102450001B685A1C7B681A6000BF1437BD465DF8C4
:10246000047B704780B485B000AF78607B681B69DF
:10247000FB607B685B687A6892689A607B689B689F
:102480007A6852685A60FB685B687A689A4203D13E
:102490007B689A68FB685A607B6800221A61FB6857
:1024A0001B685A1EFB681A60FB681B6818461437C5
:1024B000BD465DF8047B704780B584B000AF78609E
:1024C00039607B68FB60FB68002B0BD14FF0500339
:1024D00083F31188BFF36F8FBFF34F8FBB6000BFD3
:1024E00000BFFDE702F0A8F8FB681A68FB68DB6B29
:1024F000F968096C01FB03F31A44FB689A60FB68F6
:1025000000229A63FB681A68FB685A60FB681A68C5
:10251000FB68DB6B013BF968096C01FB03F31A44B0
:10252000FB68DA60FB68FF2283F84420FB68FF2227
:1025300083F845203B68002B14D1FB681B69002BF6
:102540001AD0FB681033184601F042F90346002BFD
:1025500012D00D4B4FF080521A60BFF34F8FBFF374
:102560006F8F09E0FB6810331846FFF7F1FEFB6838
:1025700024331846FFF7ECFE02F090F801231846CA
:102580001037BD4680BD00BF04ED00E080B58EB0C1
:1025900002AFF860B9607A603B60FB68002B0BD13A
:1025A0004FF0500383F31188BFF36F8FBFF34F8F4A
:1025B000BB6200BF00BFFDE73B68002B0BD14FF0B3
:1025C000500383F31188BFF36F8FBFF34F8F7B628C
:1025D00000BF00BFFDE77B68002B02D0BB68002B6B
:1025E00001D0012300E00023002B0BD14FF050035A
:1025F00083F31188BFF36F8FBFF34F8F3B6200BF30
:1026000000BFFDE77B68002B02D1BB68002B01D126
:10261000012300E00023002B0BD14FF0500383F384
:102620001188BFF36F8FBFF34F8FFB6100BF00BFF7
:10263000FDE750237B617B69502B0BD04FF050039B
:1026400083F31188BFF36F8FBFF34F8FBB6100BF60
:1026500000BFFDE77B693B68FB62FB6A002B0DD086
:10266000FB6A012283F8462097F83820FB6A009322
:1026700013467A68B968F86800F005F8FB6A1846EE
:102680003037BD4680BD80B584B000AFF860B9601A
:102690007A60FB70BB68002B03D1BB69BA691A6012
:1026A00002E0BB697A681A60BB69FA68DA63BB69E1
:1026B000BA681A640121B869FFF7FEFEBB69FA78AF
:1026C00083F84C2000BF1037BD4680BD80B58EB06A
:1026D00000AFF860B9607A603B6000237B63FB6801
:1026E0003B633B6B002B0BD14FF0500383F31188FE
:1026F000BFF36F8FBFF34F8FBB6200BF00BFFDE71B
:10270000BB68002B03D13B6B1B6C002B01D1012359
:1027100000E00023002B0BD14FF0500383F311880E
:10272000BFF36F8FBFF34F8F7B6200BF00BFFDE72A
:102730003B68022B03D13B6BDB6B012B01D10123E7
:1027400000E00023002B0BD14FF0500383F31188DE
:10275000BFF36F8FBFF34F8F3B6200BF00BFFDE73A
:1027600001F0FCF90346002B02D17B68002B01D15C
:10277000012300E00023002B0BD14FF0500383F323
:102780001188BFF36F8FBFF34F8FFB6100BF00BF96
:10279000FDE701F051FF3B6B9A6B3B6BDB6B9A42A1
:1027A00002D33B68022B29D13A68B968386B00F034
:1027B0000FFAF8623B6B5B6A002B10D03B6B243343
:1027C000184601F005F80346002B13D03F4B4FF09D
:1027D00080521A60BFF34F8FBFF36F8F0AE0FB6A1E
:1027E000002B07D0394B4FF080521A60BFF34F8F48
:1027F000BFF36F8F01F052FF012363E07B68002B72
:1028000003D101F04BFF00235CE07B6B002B06D172
:1028100007F11403184601F03FF801237B6301F030
:102820003DFF00F0A7FD01F007FF3B6B93F844303C
:102830005BB2B3F1FF3F03D13B6B002283F844202E
:102840003B6B93F845305BB2B3F1FF3F03D13B6B79
:10285000002283F8452001F021FF3A1D07F11403FF
:102860001146184601F02EF80346002B24D1386B90
:1028700000F0A6FA0346002B18D03B6B10337A68A1
:102880001146184600F052FF386B00F031FA00F0A4
:102890007FFD0346002B7FF47CAF0C4B4FF0805242
:1028A0001A60BFF34F8FBFF36F8F72E7386B00F082
:1028B0001FFA00F06DFD6CE7386B00F019FA00F0BC
:1028C00067FD002318463837BD4680BD04ED00E0A3
:1028D00080B590B000AFF860B9607A603B60FB688B
:1028E000BB63BB6B002B0BD14FF0500383F31188FC
:1028F000BFF36F8FBFF34F8FBB6200BF00BFFDE719
:10290000BB68002B03D1BB6B1B6C002B01D10123D7
:1029100000E00023002B0BD14FF0500383F311880C
:10292000BFF36F8FBFF34F8F7B6200BF00BFFDE728
:102930003B68022B03D1BB6BDB6B012B01D1012365
:1029400000E00023002B0BD14FF0500383F31188DC
:10295000BFF36F8FBFF34F8F3B6200BF00BFFDE738
:1029600001F04AFFEFF311824FF0500383F3118817
:10297000BFF36F8FBFF34F8FFA61BB61FB697B635E
:10298000BB6B9A6BBB6BDB6B9A4202D33B68022B2F
:102990002FD1BB6B93F8453087F83330BB6B9B6B03
:1029A000FB623A68B968B86B00F012F997F93330F6
:1029B000B3F1FF3F12D1BB6B5B6A002B16D0BB6B30
:1029C0002433184600F004FF0346002B0ED07B682A
:1029D000002B0BD07B6801221A6007E097F8333098
:1029E0000133DBB25AB2BB6B83F845200123FB6392
:1029F00001E00023FB637B6B7B617B6983F31188C0
:102A000000BFFB6B18464037BD4680BD80B58CB01B
:102A100000AFF860B9607A600023FB62FB68BB62BC
:102A2000BB6A002B0BD14FF0500383F31188BFF327
:102A30006F8FBFF34F8F3B6200BF00BFFDE7BB68E6
:102A4000002B03D1BB6A1B6C002B01D1012300E0DA
:102A50000023002B0BD14FF0500383F31188BFF3F9
:102A60006F8FBFF34F8FFB6100BF00BFFDE701F029
:102A700075F80346002B02D17B68002B01D101239E
:102A800000E00023002B0BD14FF0500383F311889B
:102A9000BFF36F8FBFF34F8FBB6100BF00BFFDE778
:102AA00001F0CAFDBB6A9B6B7B627B6A002B1FD067
:102AB000B968B86A00F0F6F87B6A5A1EBB6A9A6376
:102AC000BB6A1B69002B0FD0BB6A1033184600F09D
:102AD0007FFE0346002B07D03C4B4FF080521A601C
:102AE000BFF34F8FBFF36F8F01F0D8FD012369E073
:102AF0007B68002B03D101F0D1FD002362E0FB6A6B
:102B0000002B06D107F11003184600F0C5FE012383
:102B1000FB6201F0C3FD00F02DFC01F08DFDBB6AEE
:102B200093F844305BB2B3F1FF3F03D1BB6A00229C
:102B300083F84420BB6A93F845305BB2B3F1FF3FA2
:102B400003D1BB6A002283F8452001F0A7FD3A1D9E
:102B500007F110031146184600F0B4FE0346002B9F
:102B600023D1B86A00F016F90346002B17D0BB6AD0
:102B700024337A681146184600F0D8FDB86A00F090
:102B8000B7F800F005FC0346002B89D10F4B4FF03E
:102B900080521A60BFF34F8FBFF36F8F80E7B86A20
:102BA00000F0A6F800F0F4FB7AE7B86A00F0A0F8AD
:102BB00000F0EEFBB86A00F0EDF80346002B3FF49E
:102BC0006FAF002318463037BD4680BD04ED00E0EE
:102BD00080B586B000AFF860B9607A6000237B6191
:102BE000FB689B6B3B61FB681B6C002B0DD1FB688A
:102BF0001B68002B4DD1FB689B68184600F0CCFF8A
:102C00007861FB6800229A6043E07B68002B19D151
:102C1000FB685868FB681B6C1A46B96802F0A0F89C
:102C2000FB685A68FB681B6C1A44FB685A60FB68B7
:102C30005A68FB689B689A422BD3FB681A68FB684A
:102C40005A6026E0FB68D868FB681B6C1A46B968B6
:102C500002F086F8FB68DA68FB681B6C5B421A447A
:102C6000FB68DA60FB68DA68FB681B689A4207D287
:102C7000FB689A68FB681B6C5B421A44FB68DA606D
:102C80007B68022B05D13B69002B02D03B69013BDD
:102C90003B613B695A1CFB689A637B69184618378D
:102CA000BD4680BD80B582B000AF786039607B687A
:102CB0001B6C002B18D07B68DA687B681B6C1A448D
:102CC0007B68DA607B68DA687B689B689A4203D32A
:102CD0007B681A687B68DA607B68D9687B681B6CE4
:102CE0001A46386802F03CF800BF0837BD4680BD80
:102CF00080B584B000AF786001F09EFC7B6893F8EB
:102D00004530FB7311E07B685B6A002B12D07B6857
:102D10002433184600F05CFD0346002B01D000F080
:102D200035FEFB7B013BDBB2FB7397F90F30002BC9
:102D3000E9DC00E000BF7B68FF2283F8452001F05A
:102D4000ADFC01F079FC7B6893F84430BB7311E073
:102D50007B681B69002B12D07B681033184600F08B
:102D600037FD0346002B01D000F010FEBB7B013B7A
:102D7000DBB2BB7397F90E30002BE9DC00E000BF3B
:102D80007B68FF2283F8442001F088FC00BF1037E5
:102D9000BD4680BD80B584B000AF786001F04CFCCA
:102DA0007B689B6B002B02D10123FB6001E00023B9
:102DB000FB6001F073FCFB6818461037BD4680BD10
:102DC00080B584B000AF786001F036FC7B689A6B08
:102DD0007B68DB6B9A4202D10123FB6001E0002398
:102DE000FB6001F05BFCFB6818461037BD4680BDF8
:102DF00080B485B000AF786039600023FB6014E0D8
:102E00000F4AFB6852F83330002B0BD10C49FB689A
:102E10003A6841F833200A4AFB68DB0013447A68B9
:102E20005A6006E0FB680133FB60FB68072BE7D9BB
:102E300000BF00BF1437BD465DF8047B704700BF7C
:102E40002408002080B586B000AFF860B9607A60D1
:102E5000FB687B6101F0F0FB7B6993F844305BB267
:102E6000B3F1FF3F03D17B69002283F844207B69E3
:102E700093F845305BB2B3F1FF3F03D17B69002289
:102E800083F8452001F00AFC7B699B6B002B06D17F
:102E90007B6924337A68B968184600F06DFC78695C
:102EA000FFF726FF00BF1837BD4680BD80B58EB046
:102EB00004AFF860B9607A603B607B6B002B0BD18C
:102EC0004FF0500383F31188BFF36F8FBFF34F8F21
:102ED0003B6200BF00BFFDE7BB6B002B0BD14FF087
:102EE000500383F31188BFF36F8FBFF34F8FFB61E4
:102EF00000BF00BFFDE7A8233B613B69A82B0BD0B7
:102F00004FF0500383F31188BFF36F8FBFF34F8FE0
:102F1000BB6100BF00BFFDE73B69BB6B002B1ED050
:102F20007B6B002B1BD0BB6B7B627B6A7A6B1A635B
:102F30007B6A022283F8A520002303937B6A029315
:102F400007F1140301933B6B00933B687A68B968FF
:102F5000F86800F051F8786A00F0F6F801E0002314
:102F60007B617B6918462837BD4680BD80B58CB033
:102F700004AFF860B9603B601346FB80FB889B00A0
:102F8000184601F07BFC78617B69002B0ED0A820ED
:102F900001F074FCF861FB69002B03D0FB697A69CE
:102FA0001A6305E0786901F037FD01E00023FB6159
:102FB000FB69002B17D0FB69002283F8A520FA8853
:102FC00000230393FB690293FB6A0193BB6A00939E
:102FD0003B68B968F86800F00FF8F86900F0B4F8D9
:102FE0000123BB6102E04FF0FF33BB61BB691846B0
:102FF0002037BD4680BD000080B588B000AFF860C6
:10300000B9607A603B603B6B186B7B689B001A462B
:10301000A52101F021FE3B6B1A6B7B6803F1804315
:10302000013B9B001344BB61BB6923F00703BB61F9
:10303000BB6903F00703002B0BD04FF0500383F361
:103040001188BFF36F8FBFF34F8F7B6100BF00BF4D
:10305000FDE7BB68002B1FD00023FB6112E0BA68BC
:10306000FB69134419783A6BFB69134434330A46FD
:103070001A70BA68FB6913441B78002B06D0FB69F1
:103080000133FB61FB690F2BE9D900E000BF3B6B0B
:10309000002283F8432003E03B6B002283F83420B6
:1030A000BB6A372B01D93723BB623B6BBA6ADA6242
:1030B0003B6BBA6ADA643B6B00221A653B6B0433E4
:1030C0001846FFF765F93B6B18331846FFF760F9B0
:1030D0003B6B3A6B1A61BB6AC3F138023B6B9A6176
:1030E0003B6B3A6B5A623B6B0022C3F8A0203B6BF0
:1030F000002283F8A4203B6B54334C220021184655
:1031000001F0AAFD3B6B0D4A9A653B6B0C4ADA65F0
:103110003B6B0C4A1A663A68F968B86901F05AF9CB
:1031200002463B6B1A60FB6A002B02D0FB6A3A6BCB
:103130001A6000BF2037BD4680BD00BFB84A0020DE
:10314000204B0020884B002080B582B000AF786013
:1031500001F072FA2D4B1B6801332C4A13602C4B83
:103160001B68002B09D12A4A7B681360274B1B6818
:10317000012B10D100F02EFC0DE0264B1B68002B1C
:1031800009D1234B1B68DA6A7B68DB6A9A4202D852
:103190001F4A7B681360204B1B6801331E4A136073
:1031A0001D4B1A687B685A647B68DA6A1B4B1B6884
:1031B0009A4203D97B68DB6A184A13607B68DA6A33
:1031C00013469B0013449B00154A1A447B68043342
:1031D00019461046FFF7E9F801F060FA0D4B1B683D
:1031E000002B0ED00A4B1B68DA6A7B68DB6A9A42B6
:1031F00007D20C4B4FF080521A60BFF34F8FBFF3D2
:103200006F8F00BF0837BD4680BD00BF380D00205E
:1032100064080020440D0020540D0020400D0020C3
:103220006808002004ED00E080B584B000AF78604D
:103230000023FB607B68002B18D0144B1B68002B0D
:103240000BD04FF0500383F31188BFF36F8FBFF3A0
:103250004F8FBB6000BF00BFFDE700F08BF800217F
:10326000786800F009FD00F093F8F860FB68002B27
:1032700007D1074B4FF080521A60BFF34F8FBFF357
:103280006F8F00BF1037BD4680BD00BF600D0020AE
:1032900004ED00E080B58AB004AF0023BB600023DA
:1032A0007B603A46391D07F108031846FFF71CF802
:1032B00039687B68BA680292019300230093002367
:1032C0000A4624492448FFF7F1FD0346234A1360C8
:1032D000224B1B68002B02D001237B6101E00023FD
:1032E0007B617B69012B02D100F01AFD78617B695B
:1032F000012B1BD14FF0500383F31188BFF36F8F65
:10330000BFF34F8F3B6100BF154B1B685433154A09
:103310001360154B4FF0FF321A60144B01221A60F4
:10332000134B00221A6001F0E3F80FE07B69B3F160
:10333000FF3F0BD14FF0500383F31188BFF36F8F22
:10334000BFF34F8FFB6000BF00BFFDE700BF183722
:10335000BD4680BD584E0008A53900085C0D002010
:103360006408002010000020580D0020440D0020AB
:103370003C0D002080B400AF044B1B680133034AAE
:10338000136000BFBD465DF8047B7047600D0020F0
:1033900080B584B000AF0023FB600023BB60424BCC
:1033A0001B68002B0BD14FF0500383F31188BFF340
:1033B0006F8FBFF34F8F3B6000BF00BFFDE701F091
:1033C0003BF9394B1B68013B374A1360364B1B688E
:1033D000002B62D1354B1B68002B5ED02FE0344BA5
:1033E000DB68DB68FB60FB6818331846FFF73AF8C8
:1033F000FB6804331846FFF735F8FB68DA6A2D4B93
:103400001B689A4203D9FB68DB6A2A4A1360FB688F
:10341000DA6A13469B0013449B00274A1A44FB6850
:10342000043319461046FEF7C0FFFB68DA6A234BE7
:103430001B68DB6A9A4202D3214B01221A601C4BA3
:103440001B68002BCBD1FB68002B01D000F066FB82
:103450001C4B1B687B607B68002B10D000F046F88B
:103460000346002B02D0164B01221A607B68013BF9
:103470007B607B68002BF1D1124B00221A60104B4D
:103480001B68002B09D00123BB600F4B4FF080520B
:103490001A60BFF34F8FBFF36F8F01F0FFF8BB6867
:1034A00018461037BD4680BD600D0020380D002045
:1034B000F80C0020400D002068080020640800205F
:1034C0004C0D0020480D002004ED00E080B483B0D6
:1034D00000AF054B1B687B607B6818460C37BD4608
:1034E0005DF8047B704700BF3C0D002080B586B0BE
:1034F00000AF00237B614F4B1B68002B40F0908096
:103500004D4B1B6801333B614B4A3B6913603B6980
:10351000002B21D1494B1B681B68002B0BD04FF0AF
:10352000500383F31188BFF36F8FBFF34F8F3B605E
:1035300000BF00BFFDE7414B1B68FB60404B1B68B1
:103540003E4A13603E4AFB6813603E4B1B680133E2
:103550003C4A136000F0E2FA3B4B1B683A699A421E
:1035600049D3364B1B681B68002B04D1364B4FF0F8
:10357000FF321A603FE0314B1B68DB68DB68BB60E1
:10358000BB685B687B603A697B689A4203D22E4ACB
:103590007B6813602FE0BB6804331846FEF762FFB8
:1035A000BB689B6A002B04D0BB6818331846FEF733
:1035B00059FFBB68DA6A254B1B689A4203D9BB687E
:1035C000DB6A224A1360BB68DA6A13469B00134425
:1035D0009B001F4A1A44BB68043319461046FEF785
:1035E000E4FEBB68DA6A1B4B1B68DB6A9A42B8D3FD
:1035F00001237B61B5E7174B1B68DA6A1449134650
:103600009B0013449B000B441B68012B01D9012331
:103610007B61114B1B68002B07D001237B6104E009
:103620000E4B1B6801330D4A13607B69184618372F
:10363000BD4680BD600D00203C0D0020F00C002038
:10364000F40C0020500D0020580D0020400D0020EB
:1036500068080020640800204C0D0020480D002060
:1036600080B485B000AF2B4B1B68002B03D02A4BD6
:1036700001221A6047E0284B00221A60274B1B6882
:10368000FB6011E0FB68002B0BD14FF0500383F37C
:103690001188BFF36F8FBFF34F8F7B6000BF00BFF8
:1036A000FDE7FB68013BFB601D49FA6813469B0080
:1036B00013449B000B441B68002BE3D0FA681346AD
:1036C0009B0013449B00164A1344BB60BB685B68B5
:1036D0005A68BB685A60BB685A68BB6808339A422C
:1036E00004D1BB685B685A68BB685A60BB685B689A
:1036F000DB680C4A1360094AFB681360094B1B68BE
:103700005433094A136000BF1437BD465DF8047B8B
:10371000704700BF600D00204C0D0020400D0020C0
:1037200068080020640800201000002080B584B0E4
:1037300000AF786039607B68002B0BD14FF05003ED
:1037400083F31188BFF36F8FBFF34F8FFB6000BF10
:1037500000BFFDE7074B1B68183319467868FEF772
:1037600048FE0121386800F087FA00BF1037BD46D7
:1037700080BD00BF6408002080B586B000AFF8604F
:10378000B9607A60FB68002B0BD14FF0500383F3D4
:103790001188BFF36F8FBFF34F8F7B6100BF00BFF6
:1037A000FDE70A4B1B6818331946F868FEF7FDFD64
:1037B0007B68002B02D04FF0FF33BB607968B8689C
:1037C00000F05AFA00BF1837BD4680BD64080020DB
:1037D00080B586B000AF78607B68DB68DB683B61F2
:1037E0003B69002B0BD14FF0500383F31188BFF3DB
:1037F0006F8FBFF34F8FFB6000BF00BFFDE73B69DA
:1038000018331846FEF72EFE1D4B1B68002B1DD1EA
:103810003B6904331846FEF725FE3B69DA6A194B0B
:103820001B689A4203D93B69DB6A164A13603B69FD
:10383000DA6A13469B0013449B00134A1A443B69FF
:10384000043319461046FEF7B0FD05E03B69183316
:1038500019460E48FEF7A9FD3B69DA6A0C4B1B6856
:10386000DB6A9A4205D901237B610A4B01221A6067
:1038700001E000237B617B6918461837BD4680BD97
:10388000600D0020400D002068080020F80C00208A
:10389000640800204C0D002080B483B000AF786035
:1038A000064B1A687B681A60054B1A687B685A6079
:1038B00000BF0C37BD465DF8047B7047500D0020FB
:1038C0003C0D002080B588B000AF786039607B681F
:1038D000002B0BD14FF0500383F31188BFF36F8F90
:1038E000BFF34F8F3B6100BF00BFFDE73B68002B7C
:1038F0000BD14FF0500383F31188BFF36F8FBFF3E9
:103900004F8FFB6000BF00BFFDE700F095FE1D4B31
:103910001B68BB617B685B68BA69D31A7B613B68D3
:103920001B68B3F1FF3F02D10023FB6123E07B68FA
:103930001A68154B1B689A4207D07B685B68BA69A6
:103940009A4202D30123FB6115E03B681B687A6948
:103950009A420BD23B681A687B69D21A3B681A609C
:103960007868FFF799FF0023FB6104E03B680022C1
:103970001A600123FB6100F091FEFB6918462037B5
:10398000BD4680BD3C0D0020500D002080B400AF2E
:10399000034B01221A6000BFBD465DF8047B7047EF
:1039A0004C0D002080B582B000AF786000F052F876
:1039B000064B1B68012BF9D9054B4FF080521A605A
:1039C000BFF34F8FBFF36F8FF0E700BF6808002091
:1039D00004ED00E080B582B000AF00237B600CE016
:1039E0007A6813469B0013449B00124A13441846FE
:1039F000FEF7AEFC7B6801337B607B68372BEFD929
:103A00000D48FEF7A5FC0D48FEF7A2FC0C48FEF79A
:103A10009FFC0C48FEF79CFC0B48FEF799FC0B4BF7
:103A2000054A1A600A4B054A1A6000BF0837BD46AE
:103A300080BD00BF68080020C80C0020DC0C0020FE
:103A4000F80C00200C0D0020240D0020F00C0020AC
:103A5000F40C002080B582B000AF19E000F0ECFD5E
:103A6000104BDB68DB687B607B6804331846FEF72D
:103A7000F9FC0D4B1B68013B0B4A13600B4B1B6899
:103A8000013B0A4A136000F009FE786800F010F864
:103A9000064B1B68002BE1D100BF00BF0837BD46B5
:103AA00080BD00BF0C0D0020380D0020200D00202F
:103AB00080B584B000AF78607B685433184601F05D
:103AC000D3F87B6893F8A530002B08D17B681B6B7B
:103AD000184600F0A1FF786800F09EFF19E07B68AF
:103AE00093F8A530012B03D1786800F095FF10E022
:103AF0007B6893F8A530022B0BD04FF0500383F373
:103B00001188BFF36F8FBFF34F8FFB6000BF00BF03
:103B1000FDE700BF1037BD4680BD000080B483B014
:103B200000AF0C4B1B681B68002B04D10A4B4FF0F5
:103B3000FF321A6008E0074B1B68DB68DB687B60BC
:103B40007B685B68044A136000BF0C37BD465DF8B4
:103B5000047B7047F00C0020580D002080B483B027
:103B600000AF0B4B1B68002B02D101237B6008E0E8
:103B7000084B1B68002B02D102237B6001E000236D
:103B80007B607B6818460C37BD465DF8047B704748
:103B9000440D0020600D002080B586B000AF786035
:103BA0007B683B6100237B617B68002B58D02F4BE7
:103BB0001B683A699A420BD04FF0500383F3118887
:103BC000BFF36F8FBFF34F8FFB6000BF00BFFDE7F8
:103BD0003B691B6D002B0BD14FF0500383F3118811
:103BE000BFF36F8FBFF34F8FBB6000BF00BFFDE718
:103BF0003B691B6D5A1E3B691A653B69DA6A3B6972
:103C0000DB6C9A422CD03B691B6D002B28D13B69A1
:103C100004331846FEF726FC3B69DA6C3B69DA622E
:103C20003B69DB6AC3F138023B699A613B69DA6A36
:103C30000F4B1B689A4203D93B69DB6A0C4A13603D
:103C40003B69DA6A13469B0013449B00094A1A44F5
:103C50003B69043319461046FEF7A7FB01237B613D
:103C60007B6918461837BD4680BD00BF6408002038
:103C7000400D00206808002080B584B000AF786057
:103C80003960214B1B68FB60204B1B6804331846CE
:103C9000FEF7E8FB7B68B3F1FF3F0AD13B68002BDE
:103CA00007D01A4B1B68043319461948FEF77DFBF1
:103CB00026E0FA687B681344BB60144B1B68BA6843
:103CC0005A60BA68FB689A4209D2124B1A680F4BC5
:103CD0001B68043319461046FEF78BFB10E00E4BB1
:103CE0001A680A4B1B68043319461046FEF781FB1D
:103CF0000A4B1B68BA689A4202D2084ABB68136032
:103D000000BF1037BD4680BD3C0D00206408002078
:103D1000240D0020F40C0020F00C0020580D002091
:103D200080B58AB004AF00237B6100F013FB1D4B0C
:103D30001B68002B21D00023FB600023BB603A1DD1
:103D400007F1080107F10C031846FEF7E7FA796856
:103D5000BB68FA68029201930223009300230A468B
:103D600011491248FFF7A2F80346114A1360104B9D
:103D70001B68002B01D001237B617B69002B0BD1D9
:103D80004FF0500383F31188BFF36F8FBFF34F8F52
:103D90003B6100BF00BFFDE77B6918461837BD4691
:103DA00080BD00BF940D0020604E0008ED3E00086D
:103DB000980D002080B58AB000AFF860B9607A60D5
:103DC0003B6000237B62FB68002B0BD14FF050035C
:103DD00083F31188BFF36F8FBFF34F8F3B6200BF38
:103DE00000BFFDE7194B1B68002B2AD0BB683B6165
:103DF0007B687B61FB68BB61BB68052B18DCFFF748
:103E0000ADFE0346022B09D1104B186807F11001D3
:103E100000233A6BFEF75AFC786212E00B4B1868ED
:103E200007F1100100230022FEF750FC786208E041
:103E3000064B186807F1100100233A68FEF748FDA9
:103E400078627B6A18462837BD4680BD940D0020F5
:103E500080B588B002AF78603960234B1B68DB689F
:103E6000DB687B617B6904331846FEF7FBFA7B69EC
:103E700093F8283003F00403002B23D07B699A6960
:103E80007B68D1187B683A68786900F0D5F80346FA
:103E9000002B20D00023009300237A68002178694A
:103EA000FFF788FF38613B69002B14D14FF05003B6
:103EB00083F31188BFF36F8FBFF34F8FFB6000BF99
:103EC00000BFFDE77B6993F8283023F00103DAB2E5
:103ED0007B6983F828207B691B6A7869984700BF53
:103EE0001837BD4680BD00BF8C0D002080B584B062
:103EF00000AF786007F10803184600F059F8F86041
:103F0000BB681946F86800F005F800F0D7F800BF64
:103F1000F0E7000080B584B000AF78603960FFF74B
:103F200029FA07F10803184600F066F8F860BB6844
:103F3000002B30D13B68002B0AD17A68FB689A428B
:103F400006D8FFF725FAF9687868FFF781FF24E0C3
:103F50003B68002B08D0134B1B681B68002B01D15A
:103F6000012300E000233B600F4B18687A68FB6870
:103F7000D31A3A681946FEF765FFFFF709FA0346B8
:103F8000002B0AD1094B4FF080521A60BFF34F8FBC
:103F9000BFF36F8F01E0FFF7FBF900BF1037BD469D
:103FA00080BD00BF900D0020940D002004ED00E0C6
:103FB00080B485B000AF78600E4B1B681B68002B87
:103FC00001D1012200E000227B681A607B681B6837
:103FD000002B05D1074B1B68DB681B68FB6001E009
:103FE0000023FB60FB6818461437BD465DF8047B70
:103FF000704700BF8C0D002080B584B000AF7860A2
:10400000FFF764FAF8600B4B1B68FA689A4205D216
:1040100000F03AF97B6801221A6002E07B68002216
:104020001A60044AFB681360FB6818461037BD46E7
:1040300080BD00BF9C0D002080B586B000AFF86049
:10404000B9607A603B6000237B61FB68BA685A60A4
:10405000FB68FA681A61BA687B689A4212D87A6873
:104060003B68D21AFB689B699A4202D301237B61A9
:104070001BE0104B1A68FB68043319461046FEF724
:10408000B8F912E07A683B689A4206D2BA683B688F
:104090009A4202D301237B6107E0074B1A68FB6851
:1040A000043319461046FEF7A4F97B691846183701
:1040B000BD4680BD900D00208C0D002080B58EB0D7
:1040C00002AFCEE07B68002B19DA3B1D0433FB62A4
:1040D000FB6A002B0BD14FF0500383F31188BFF321
:1040E0006F8FBFF34F8FFB6100BF00BFFDE7FB6A1F
:1040F0001B68FA6A5068FA6A9268114698477B68AA
:10410000002BC0F2AE80FB68BB62BB6A5B69002B10
:1041100004D0BB6A04331846FEF7A4F93B461846A0
:10412000FFF76AFF78627B68092B00F2978001A293
:1041300052F823F05D4100085D4100085D41000830
:10414000D3410008E7410008334200085D41000800
:104150005D410008D3410008E7410008BB6A93F8BD
:10416000283043F00103DAB2BB6A83F82820BA682A
:10417000BB6A9B69D118BB687A6AB86AFFF75CFFB3
:104180000346002B6CD0BB6A1B6AB86A9847BB6AAF
:1041900093F8283003F00403002B61D0BA68BB6A9F
:1041A0009B691A440023009300230021B86AFFF79B
:1041B00001FE38623B6A002B52D14FF0500383F36B
:1041C0001188BFF36F8FBFF34F8FBB6100BF00BF7C
:1041D000FDE7BB6A93F8283023F00103DAB2BB6A2B
:1041E00083F828203DE0BB6A93F8283043F00103B0
:1041F000DAB2BB6A83F82820BA68BB6A9A61BB6AE4
:104200009B69002B0BD14FF0500383F31188BFF350
:104210006F8FBFF34F8F7B6100BF00BFFDE7BB6AAD
:104220009A697B6AD1187B6A7A6AB86AFFF704FFD9
:1042300017E0BB6A93F8283003F00203002B03D188
:10424000B86A00F0E9FB0CE0BB6A93F8283023F071
:104250000103DAB2BB6A83F8282002E000BF00E065
:1042600000BF084B1B68391D00221846FEF7CEFB25
:104270000346002B7FF426AF00BF00BF3037BD469A
:1042800080BD00BF940D002080B588B002AF49E02A
:104290002E4B1B68DB681B683B612C4B1B68DB6883
:1042A000DB68FB60FB6804331846FEF7DBF8FB684D
:1042B0001B6AF8689847FB6893F8283003F00403FA
:1042C000002B2FD0FB689B693A691344BB60BA6826
:1042D0003B699A420ED9FB68BA685A60FB68FA6873
:1042E0001A611A4B1A68FB68043319461046FEF728
:1042F00080F817E00023009300233A690021F86852
:10430000FFF758FD78607B68002B0BD14FF050030E
:1043100083F31188BFF36F8FBFF34F8F3B6000BFF4
:1043200000BFFDE7094B1B681B68002BB0D1074B92
:104330001B687B61064B1B68044A1360044A7B6957
:10434000136000BF1837BD4680BD00BF8C0D002034
:10435000900D002080B582B002AF00F06DF9154BD2
:104360001B68002B20D11448FDF7F2FF1348FDF71E
:10437000EFFF134B104A1A60124B104A1A600023C9
:104380000093114B114A10210A20FEF7FFF8034653
:10439000084A1360074B1B68002B05D0054B1B68B0
:1043A0000B491846FEF724FD00F078F900BFBD4622
:1043B00080BD00BF940D0020640D0020780D00200A
:1043C0008C0D0020900D0020400E0020A00D00203C
:1043D000684E000880B485B000AFF860B9607A60BC
:1043E000FB68043BFB60FB684FF080721A60FB685F
:1043F000043BFB60BB6823F00102FB681A60FB68AA
:10440000043BFB600C4AFB681A60FB68143BFB60D2
:104410007A68FB681A60FB68043BFB60FB686FF01E
:1044200002021A60FB68203BFB60FB6818461437E9
:10443000BD465DF8047B70473D44000880B485B0FC
:1044400000AF00237B60134B1B68B3F1FF3F0BD021
:104450004FF0500383F31188BFF36F8FBFF34F8F7B
:10446000FB6000BF00BFFDE74FF0500383F31188EE
:10447000BFF36F8FBFF34F8FBB6000BF00BF7B6880
:10448000002BFCD000BF00BF1437BD465DF8047B95
:10449000704700BF0C00002000000000000000007A
:1044A000074B19680868B0E8F04F80F30988BFF33C
:1044B0006F8F4FF0000080F311887047AFF30080DA
:1044C0006408002000BF00BF08480068006880F34F
:1044D00008884FF0000080F3148862B661B6BFF31D
:1044E0004F8FBFF36F8F00DF00BF00BF08ED00E00C
:1044F00080B586B000AF474B1B68474A93420BD14B
:104500004FF0500383F31188BFF36F8FBFF34F8FCA
:104510003B6100BF00BFFDE73E4B1B683F4A934233
:104520000BD14FF0500383F31188BFF36F8FBFF3AC
:104530004F8FFB6000BF00BFFDE7394B7B617B699C
:104540001B78DBB27B607B69FF221A707B691B786A
:10455000DBB2FB70FB78DBB203F05003DAB2314B15
:104560001A70314B07221A6009E02F4B1B68013B80
:104570002D4A1360FB78DBB25B00DBB2FB70FB788B
:10458000DBB203F08003802BEFD0274B1B68C3F115
:104590000703042B0BD04FF0500383F31188BFF3B4
:1045A0006F8FBFF34F8FBB6000BF00BFFDE71E4B97
:1045B0001B681B021C4A13601B4B1B6803F4E0635F
:1045C000194A13607B68DAB27B691A70174B1B6853
:1045D000164A43F470031360144B1B68134A43F0EC
:1045E0007043136000F0DAF8114B00221A6000F0FB
:1045F000F9F8104B1B680F4A43F040431360FFF774
:1046000063FFFFF72DF8FFF719FF0023184618374F
:10461000BD4680BD00ED00E071C20F4170C20F4188
:1046200000E400E0900E0020940E002020ED00E059
:104630000C00002034EF00E080B483B000AF4FF0F6
:10464000500383F31188BFF36F8FBFF34F8F7B60ED
:1046500000BF104B1B6801330E4A13600D4B1B68E3
:10466000012B10D10C4B1B68DBB2002B0BD04FF091
:10467000500383F31188BFF36F8FBFF34F8F3B60FD
:1046800000BF00BFFDE700BF0C37BD465DF8047BEF
:10469000704700BF0C00002004ED00E080B483B040
:1046A00000AF124B1B68002B0BD14FF0500383F36C
:1046B0001188BFF36F8FBFF34F8F7B6000BF00BFC8
:1046C000FDE70A4B1B68013B084A1360074B1B6858
:1046D000002B05D100233B603B6883F3118800BFAA
:1046E00000BF0C37BD465DF8047B70470C0000200E
:1046F000EFF30980BFF36F8F154B1A681EF0100F90
:1047000008BF20ED108A20E9F04F10602DE9090064
:104710004FF0500080F31188BFF34F8FBFF36F8FBE
:10472000FEF79EFF4FF0000080F3118809BC196866
:104730000868B0E8F04F1EF0100F08BFB0EC108A08
:1047400080F30988BFF36F8F704700BFAFF300801D
:104750006408002000BF00BF80B582B000AF4FF0FA
:10476000500383F31188BFF36F8FBFF34F8F7B60CC
:1047700000BFFEF7BBFE0346002B03D0064B4FF0F5
:1047800080521A6000233B603B6883F3118800BFAE
:1047900000BF0837BD4680BD04ED00E080B400AF27
:1047A0000B4B00221A600B4B00221A600A4B1B684D
:1047B0000A4AA2FB03239B09094A013B1360044BED
:1047C00007221A6000BFBD465DF8047B704700BF3A
:1047D00010E000E018E000E000000020D34D62107F
:1047E00014E000E0DFF80C00016841F470010160A2
:1047F000704700BF88ED00E080B485B000AFEFF3F4
:104800000583FB60FB680F2B15D9184AFB6813441E
:104810001B78FB72164B1B78FA7A9A420BD24FF038
:10482000500383F31188BFF36F8FBFF34F8F7B600B
:1048300000BF00BFFDE70F4B1B6803F4E0620E4BA7
:104840001B689A420BD94FF0500383F31188BFF3D2
:104850006F8FBFF34F8F3B6000BF00BFFDE700BF0E
:104860001437BD465DF8047B704700BFF0E300E0FD
:10487000900E00200CED00E0940E002080B58AB070
:1048800000AF78600023FB61FEF774FD5C4B1B6892
:10489000002B01D100F024F95A4B1A687B681340B1
:1048A000002B40F095807B68002B1ED008227B688F
:1048B00013447B607B6803F00703002B15D07B68F3
:1048C00023F0070308337B607B6803F00703002BAA
:1048D0000BD04FF0500383F31188BFF36F8FBFF3FA
:1048E0004F8F7B6100BF00BFFDE77B68002B6FD05F
:1048F000454B1B687A689A426AD8444B3B62434BEB
:104900001B687B6204E07B6A3B627B6A1B687B629C
:104910007B6A5B687A689A4203D97B6A1B68002BC2
:10492000F1D1374B1B687A6A9A4251D03B6A1B68B7
:1049300008221344FB617B6A1A683B6A1A607B6A2F
:104940005A687B68D21A08235B009A4220D97A6A97
:104950007B681344BB61BB6903F00703002B0BD0DA
:104960004FF0500383F31188BFF36F8FBFF34F8F66
:104970003B6100BF00BFFDE77B6A5A687B68D21AC3
:10498000BB695A607B6A7A685A60B86900F00AF9B4
:104990001D4B1A687B6A5B68D31A1B4A13601A4B5B
:1049A0001A681B4B1B689A4203D2174B1B68184AA4
:1049B00013607B6A5A68134B1B681A437B6A5A6000
:1049C0007B6A00221A60134B1B680133114A136083
:1049D000FEF7DEFCFB6903F00703002B0BD04FF062
:1049E000500383F31188BFF36F8FBFF34F8FFB60CA
:1049F00000BF00BFFDE7FB6918462837BD4680BDF4
:104A0000A04A0020B44A0020A44A0020984A00206E
:104A1000A84A0020AC4A002080B586B000AF78607C
:104A20007B687B617B68002B4FD008235B427A69EF
:104A300013447B617B693B613B695A68254B1B686A
:104A40001340002B0BD14FF0500383F31188BFF3B9
:104A50006F8FBFF34F8FFB6000BF00BFFDE73B6967
:104A60001B68002B0BD04FF0500383F31188BFF36A
:104A70006F8FBFF34F8FBB6000BF00BFFDE73B6987
:104A80005A68144B1B681340002B1ED03B691B68EF
:104A9000002B1AD13B695A680E4B1B68DB431A4046
:104AA0003B695A60FEF766FC3B695A680A4B1B6813
:104AB0001344094A1360386900F074F8074B1B6807
:104AC0000133064A1360FEF763FC00BF1837BD468A
:104AD00080BD00BFB44A0020A44A0020B04A002094
:104AE00080B485B000AF4FF47053BB60274BFB60C0
:104AF000FB6803F00703002B0CD0FB680733FB6057
:104B0000FB6823F00703FB60BA68FB68D31A1F4AEF
:104B10001344BB60FB687B601D4A7B6813601C4BC1
:104B200000225A607B68BA681344FB600822FB6865
:104B30009B1AFB60FB6823F00703FB60FB68154AC8
:104B40001360144B1B6800225A60124B1B68002232
:104B50001A607B683B603B68FA68D21A3B685A600F
:104B60000C4B1A683B681A603B685B680A4A136022
:104B70003B685B68094A1360094B4FF000421A60BA
:104B800000BF1437BD465DF8047B7047980E0020C7
:104B9000984A0020A04A0020A84A0020A44A0020E9
:104BA000B44A002080B485B000AF7860284BFB6029
:104BB00002E0FB681B68FB60FB681B687A689A422E
:104BC000F7D8FB68BB60FB685B68BA6813447A6817
:104BD0009A4208D1FB685A687B685B681A44FB6894
:104BE0005A60FB687B607B68BB607B685B68BA6807
:104BF0001A44FB681B689A4218D1FB681A68154B67
:104C00001B689A420DD07B685A68FB681B685B681A
:104C10001A447B685A60FB681B681A687B681A60D4
:104C200008E00C4B1A687B681A6003E0FB681A689E
:104C30007B681A60FA687B689A4202D0FB687A68DF
:104C40001A6000BF1437BD465DF8047B704700BF93
:104C5000984A0020A04A002002440346934200D113
:104C6000704703F8011BF9E7294B1B68834270B5B5
:104C700004464BD0C369ABB1DB686BB10025E36977
:104C8000DB68595900293BD10435802DF7D1E36900
:104C90002046D96800F072F8E369196811B120461E
:104CA00000F06CF8616911B1204600F067F8E16925
:104CB00011B1204600F062F8216B11B1204600F0DE
:104CC0005DF8616B11B1204600F058F8A16B11B18D
:104CD000204600F053F8A16C11B1204600F04EF8C8
:104CE000616C11B1204600F049F8E16A11B120462B
:104CF00000F044F8236A4BB12046BDE870401847E5
:104D00000E68204600F03AF83146BBE770BD00BFA0
:104D10001000002070B50D4D0D4C641BA410002632
:104D2000A64209D10B4D0C4C00F07EF8641BA41078
:104D30000026A64205D170BD55F8043B98470136C0
:104D4000EEE755F8043B98470136F2E7D84E0008E5
:104D5000D84E0008D84E0008DC4E00087047704757
:104D60000A44914200F1FF3300D1704710B511F8A9
:104D7000014B03F8014F9142F9D110BD38B50546FA
:104D8000002941D051F8043C0C1F002BB8BFE41897
:104D900000F03EF81D4A136833B96360146028467A
:104DA000BDE8384000F03AB8A34208D9206821187D
:104DB0008B4201BF19685B6809182160EDE71A464C
:104DC0005B680BB1A342FAD911685018A0420BD10D
:104DD00020680144501883421160E0D118685B6874
:104DE000536008441060DAE702D90C232B60D6E741
:104DF000206821188B4204BF19685B68636004BF98
:104E0000091821605460CAE738BD00BFF44B002088
:104E10000148FFF7A3BF00BFF04B00200148FFF798
:104E20009EBF00BFF04B0020F8B500BFF8BC08BC27
:104E30009E467047F8B500BFF8BC08BC9E46704758
:104E400064656661756C745461736B006D7954614F
:104E5000736B30320000000049444C4500000000F4
:104E6000546D722053766300546D7251000000003F
:104E7000404E00080000000000000000000000009C
:104E80000000000000020000180000000000000008
:104E9000000000004C4E0008000000000000000070
:104EA00000000000000000000002000008000000F8
:104EB00000000000000000000000000000000000F2
:104EC00001020304060708090000000001020304B0
:084ED00070B3FF7F0100000038
:044ED800F5010008D8
:044EDC00D1010008F8
:104EE0000024F4001000000001000000AAAAAAAAF1
:104EF0001400002000000000B84A0020204B0020D1
:104F0000884B0020000000000000000000000000AE
:104F10000000000000000000000000000000000091
:104F20000000000000000000000000000000000081
:104F30000000000000000000000000000000000071
:04000005080008F5F2
:00000001FF
